{
  "contractName": "DiceGame",
  "abi": [
    {
      "inputs": [],
      "stateMutability": "nonpayable",
      "type": "constructor"
    },
    {
      "anonymous": false,
      "inputs": [
        {
          "indexed": true,
          "internalType": "address",
          "name": "player",
          "type": "address"
        },
        {
          "indexed": true,
          "internalType": "enum DiceGame.Result",
          "name": "result",
          "type": "uint8"
        },
        {
          "indexed": false,
          "internalType": "uint256",
          "name": "bet_amount",
          "type": "uint256"
        },
        {
          "indexed": false,
          "internalType": "uint256",
          "name": "transfered_to_player",
          "type": "uint256"
        }
      ],
      "name": "GameResult",
      "type": "event"
    },
    {
      "stateMutability": "payable",
      "type": "fallback",
      "payable": true
    },
    {
      "inputs": [],
      "name": "bet_percentage_fee",
      "outputs": [
        {
          "internalType": "uint256",
          "name": "",
          "type": "uint256"
        }
      ],
      "stateMutability": "view",
      "type": "function",
      "constant": true
    },
    {
      "inputs": [
        {
          "internalType": "bytes32",
          "name": "",
          "type": "bytes32"
        }
      ],
      "name": "games",
      "outputs": [
        {
          "internalType": "address",
          "name": "player",
          "type": "address"
        },
        {
          "internalType": "uint256",
          "name": "bet_amount",
          "type": "uint256"
        },
        {
          "internalType": "enum DiceGame.Result",
          "name": "result",
          "type": "uint8"
        },
        {
          "internalType": "uint256",
          "name": "selection",
          "type": "uint256"
        }
      ],
      "stateMutability": "view",
      "type": "function",
      "constant": true
    },
    {
      "inputs": [],
      "name": "maximum_bet",
      "outputs": [
        {
          "internalType": "uint256",
          "name": "",
          "type": "uint256"
        }
      ],
      "stateMutability": "view",
      "type": "function",
      "constant": true
    },
    {
      "inputs": [],
      "name": "minimum_bet",
      "outputs": [
        {
          "internalType": "uint256",
          "name": "",
          "type": "uint256"
        }
      ],
      "stateMutability": "view",
      "type": "function",
      "constant": true
    },
    {
      "inputs": [
        {
          "internalType": "address",
          "name": "",
          "type": "address"
        }
      ],
      "name": "player_request_id",
      "outputs": [
        {
          "internalType": "bytes32",
          "name": "",
          "type": "bytes32"
        }
      ],
      "stateMutability": "view",
      "type": "function",
      "constant": true
    },
    {
      "inputs": [
        {
          "internalType": "bytes32",
          "name": "requestId",
          "type": "bytes32"
        },
        {
          "internalType": "uint256",
          "name": "randomness",
          "type": "uint256"
        }
      ],
      "name": "rawFulfillRandomness",
      "outputs": [],
      "stateMutability": "nonpayable",
      "type": "function"
    },
    {
      "stateMutability": "payable",
      "type": "receive",
      "payable": true
    },
    {
      "inputs": [
        {
          "internalType": "uint256",
          "name": "selection",
          "type": "uint256"
        }
      ],
      "name": "roll",
      "outputs": [
        {
          "internalType": "bytes32",
          "name": "_requestId",
          "type": "bytes32"
        }
      ],
      "stateMutability": "payable",
      "type": "function",
      "payable": true
    },
    {
      "inputs": [
        {
          "internalType": "uint256",
          "name": "amount",
          "type": "uint256"
        }
      ],
      "name": "withdrawFunds",
      "outputs": [],
      "stateMutability": "nonpayable",
      "type": "function"
    },
    {
      "inputs": [],
      "name": "withdrawLink",
      "outputs": [],
      "stateMutability": "nonpayable",
      "type": "function"
    },
    {
      "inputs": [
        {
          "internalType": "address",
          "name": "new_owner",
          "type": "address"
        }
      ],
      "name": "setOwner",
      "outputs": [],
      "stateMutability": "nonpayable",
      "type": "function"
    },
    {
      "inputs": [
        {
          "internalType": "uint256",
          "name": "percentage",
          "type": "uint256"
        }
      ],
      "name": "setBetPercentageFee",
      "outputs": [],
      "stateMutability": "nonpayable",
      "type": "function"
    },
    {
      "inputs": [
        {
          "internalType": "uint256",
          "name": "amount",
          "type": "uint256"
        }
      ],
      "name": "setMinimumBet",
      "outputs": [],
      "stateMutability": "nonpayable",
      "type": "function"
    },
    {
      "inputs": [
        {
          "internalType": "uint256",
          "name": "amount",
          "type": "uint256"
        }
      ],
      "name": "setMaximumBet",
      "outputs": [],
      "stateMutability": "nonpayable",
      "type": "function"
    },
    {
      "inputs": [],
      "name": "getLinkBalance",
      "outputs": [
        {
          "internalType": "uint256",
          "name": "",
          "type": "uint256"
        }
      ],
      "stateMutability": "view",
      "type": "function",
      "constant": true
    }
  ],
  "bytecode": "0x60c06040526103e8600255662386f26fc100006003556802b5e3af16b18800006004557f6c3699283bda56ad74f6b855546325b68d482e983852a7a82979cc4807b641f460001b60055567016345785d8a000060065534801561006157600080fd5b5073dd3782915140c8f3b190b5d67eac6dc5760c46e973a36085f69e2889c224210f603d836748e7dc00888173ffffffffffffffffffffffffffffffffffffffff1660a08173ffffffffffffffffffffffffffffffffffffffff1660601b815250508073ffffffffffffffffffffffffffffffffffffffff1660808173ffffffffffffffffffffffffffffffffffffffff1660601b81525050505033600160006101000a81548173ffffffffffffffffffffffffffffffffffffffff021916908373ffffffffffffffffffffffffffffffffffffffff16021790555060805160601c60a05160601c611c5a61018b60003960008181610c550152610daa015260008181610505015281816108e101528181610abf01528181610afc0152610d6e0152611c5a6000f3fe6080604052600436106100e15760003560e01c8063845712351161007f57806394985ddd1161005957806394985ddd1461027f578063b6071cc6146102a8578063bc97ee17146102e5578063f579f88214610310576100e8565b806384571235146102145780638772ae3c1461023f5780638dc654a214610268576100e8565b806320820967116100bb578063208209671461016c57806320ae2059146101975780633ba62b9f146101c057806350c5f975146101e9576100e8565b806313af4035146100ea578063155dd5ee146101135780631f7b4f301461013c576100e8565b366100e857005b005b3480156100f657600080fd5b50610111600480360381019061010c919061121c565b610350565b005b34801561011f57600080fd5b5061013a600480360381019061013591906112e3565b610424565b005b610156600480360381019061015191906112e3565b6104fe565b60405161016391906115c8565b60405180910390f35b34801561017857600080fd5b506101816107a3565b60405161018e9190611731565b60405180910390f35b3480156101a357600080fd5b506101be60048036038101906101b991906112e3565b6107a9565b005b3480156101cc57600080fd5b506101e760048036038101906101e291906112e3565b610843565b005b3480156101f557600080fd5b506101fe6108dd565b60405161020b9190611731565b60405180910390f35b34801561022057600080fd5b5061022961098d565b6040516102369190611731565b60405180910390f35b34801561024b57600080fd5b50610266600480360381019061026191906112e3565b610993565b005b34801561027457600080fd5b5061027d610a2d565b005b34801561028b57600080fd5b506102a660048036038101906102a191906112a3565b610c53565b005b3480156102b457600080fd5b506102cf60048036038101906102ca919061121c565b610cef565b6040516102dc91906115c8565b60405180910390f35b3480156102f157600080fd5b506102fa610d07565b6040516103079190611731565b60405180910390f35b34801561031c57600080fd5b5061033760048036038101906103329190611276565b610d0d565b6040516103479493929190611583565b60405180910390f35b600160009054906101000a900473ffffffffffffffffffffffffffffffffffffffff1673ffffffffffffffffffffffffffffffffffffffff163373ffffffffffffffffffffffffffffffffffffffff16146103e0576040517f08c379a00000000000000000000000000000000000000000000000000000000081526004016103d790611651565b60405180910390fd5b80600160006101000a81548173ffffffffffffffffffffffffffffffffffffffff021916908373ffffffffffffffffffffffffffffffffffffffff16021790555050565b600160009054906101000a900473ffffffffffffffffffffffffffffffffffffffff1673ffffffffffffffffffffffffffffffffffffffff163373ffffffffffffffffffffffffffffffffffffffff16146104b4576040517f08c379a00000000000000000000000000000000000000000000000000000000081526004016104ab90611651565b60405180910390fd5b3373ffffffffffffffffffffffffffffffffffffffff166108fc829081150290604051600060405180830381858888f193505050501580156104fa573d6000803e3d6000fd5b5050565b60006006547f000000000000000000000000000000000000000000000000000000000000000073ffffffffffffffffffffffffffffffffffffffff166370a08231306040518263ffffffff1660e01b815260040161055c9190611501565b60206040518083038186803b15801561057457600080fd5b505afa158015610588573d6000803e3d6000fd5b505050506040513d601f19601f820116820180604052508101906105ac9190611310565b116105ec576040517f08c379a00000000000000000000000000000000000000000000000000000000081526004016105e390611671565b60405180910390fd5b4734111561062f576040517f08c379a0000000000000000000000000000000000000000000000000000000008152600401610626906116f1565b60405180910390fd5b600354341015610674576040517f08c379a000000000000000000000000000000000000000000000000000000000815260040161066b90611691565b60405180910390fd5b6004543411156106b9576040517f08c379a00000000000000000000000000000000000000000000000000000000081526004016106b090611711565b60405180910390fd5b60006106c9600554600654610d6a565b9050336007600083815260200190815260200160002060000160006101000a81548173ffffffffffffffffffffffffffffffffffffffff021916908373ffffffffffffffffffffffffffffffffffffffff16021790555034600760008381526020019081526020016000206001018190555082600760008381526020019081526020016000206003018190555080600860003373ffffffffffffffffffffffffffffffffffffffff1673ffffffffffffffffffffffffffffffffffffffff1681526020019081526020016000208190555080915050919050565b60025481565b600160009054906101000a900473ffffffffffffffffffffffffffffffffffffffff1673ffffffffffffffffffffffffffffffffffffffff163373ffffffffffffffffffffffffffffffffffffffff1614610839576040517f08c379a000000000000000000000000000000000000000000000000000000000815260040161083090611651565b60405180910390fd5b8060048190555050565b600160009054906101000a900473ffffffffffffffffffffffffffffffffffffffff1673ffffffffffffffffffffffffffffffffffffffff163373ffffffffffffffffffffffffffffffffffffffff16146108d3576040517f08c379a00000000000000000000000000000000000000000000000000000000081526004016108ca90611651565b60405180910390fd5b8060028190555050565b60007f000000000000000000000000000000000000000000000000000000000000000073ffffffffffffffffffffffffffffffffffffffff166370a08231306040518263ffffffff1660e01b81526004016109389190611501565b60206040518083038186803b15801561095057600080fd5b505afa158015610964573d6000803e3d6000fd5b505050506040513d601f19601f820116820180604052508101906109889190611310565b905090565b60035481565b600160009054906101000a900473ffffffffffffffffffffffffffffffffffffffff1673ffffffffffffffffffffffffffffffffffffffff163373ffffffffffffffffffffffffffffffffffffffff1614610a23576040517f08c379a0000000000000000000000000000000000000000000000000000000008152600401610a1a90611651565b60405180910390fd5b8060038190555050565b600160009054906101000a900473ffffffffffffffffffffffffffffffffffffffff1673ffffffffffffffffffffffffffffffffffffffff163373ffffffffffffffffffffffffffffffffffffffff1614610abd576040517f08c379a0000000000000000000000000000000000000000000000000000000008152600401610ab490611651565b60405180910390fd5b7f000000000000000000000000000000000000000000000000000000000000000073ffffffffffffffffffffffffffffffffffffffff1663a9059cbb337f000000000000000000000000000000000000000000000000000000000000000073ffffffffffffffffffffffffffffffffffffffff166370a08231306040518263ffffffff1660e01b8152600401610b539190611501565b60206040518083038186803b158015610b6b57600080fd5b505afa158015610b7f573d6000803e3d6000fd5b505050506040513d601f19601f82011682018060405250810190610ba39190611310565b6040518363ffffffff1660e01b8152600401610bc092919061151c565b602060405180830381600087803b158015610bda57600080fd5b505af1158015610bee573d6000803e3d6000fd5b505050506040513d601f19601f82011682018060405250810190610c129190611249565b610c51576040517f08c379a0000000000000000000000000000000000000000000000000000000008152600401610c48906116b1565b60405180910390fd5b565b7f000000000000000000000000000000000000000000000000000000000000000073ffffffffffffffffffffffffffffffffffffffff163373ffffffffffffffffffffffffffffffffffffffff1614610ce1576040517f08c379a0000000000000000000000000000000000000000000000000000000008152600401610cd8906116d1565b60405180910390fd5b610ceb8282610ec9565b5050565b60086020528060005260406000206000915090505481565b60045481565b60076020528060005260406000206000915090508060000160009054906101000a900473ffffffffffffffffffffffffffffffffffffffff16908060010154908060020160009054906101000a900460ff16908060030154905084565b60007f000000000000000000000000000000000000000000000000000000000000000073ffffffffffffffffffffffffffffffffffffffff16634000aea07f000000000000000000000000000000000000000000000000000000000000000084866000604051602001610dde9291906115e3565b6040516020818303038152906040526040518463ffffffff1660e01b8152600401610e0b93929190611545565b602060405180830381600087803b158015610e2557600080fd5b505af1158015610e39573d6000803e3d6000fd5b505050506040513d601f19601f82011682018060405250810190610e5d9190611249565b506000610e7f8460003060008089815260200190815260200160002054611144565b9050600160008086815260200190815260200160002054610ea091906117a2565b60008086815260200190815260200160002081905550610ec08482611180565b91505092915050565b60006007600084815260200190815260200160002060000160009054906101000a900473ffffffffffffffffffffffffffffffffffffffff16905060006007600085815260200190815260200160002060030154600284610f2a9190611975565b1415610f745760016007600086815260200190815260200160002060020160006101000a81548160ff02191690836002811115610f6a57610f69611a04565b5b0217905550610fb4565b60026007600086815260200190815260200160002060020160006101000a81548160ff02191690836002811115610fae57610fad611a04565b5b02179055505b60016002811115610fc857610fc7611a04565b5b6007600086815260200190815260200160002060020160009054906101000a900460ff166002811115610ffe57610ffd611a04565b5b14156110a2576000600260076000878152602001908152602001600020600101546110299190611829565b905060006127106002548361103e9190611829565b61104891906117f8565b905080826110569190611883565b92508373ffffffffffffffffffffffffffffffffffffffff166108fc849081150290604051600060405180830381858888f1935050505015801561109e573d6000803e3d6000fd5b5050505b6007600085815260200190815260200160002060020160009054906101000a900460ff1660028111156110d8576110d7611a04565b5b8273ffffffffffffffffffffffffffffffffffffffff167fbe47df9f3d33d4569fa7aa0c052843bcca36cb2e6ca8d375c6884ccbb291017460076000888152602001908152602001600020600101548460405161113692919061174c565b60405180910390a350505050565b60008484848460405160200161115d949392919061160c565b6040516020818303038152906040528051906020012060001c9050949350505050565b600082826040516020016111959291906114d5565b60405160208183030381529060405280519060200120905092915050565b6000813590506111c281611bc8565b92915050565b6000815190506111d781611bdf565b92915050565b6000813590506111ec81611bf6565b92915050565b60008135905061120181611c0d565b92915050565b60008151905061121681611c0d565b92915050565b60006020828403121561123257611231611a33565b5b6000611240848285016111b3565b91505092915050565b60006020828403121561125f5761125e611a33565b5b600061126d848285016111c8565b91505092915050565b60006020828403121561128c5761128b611a33565b5b600061129a848285016111dd565b91505092915050565b600080604083850312156112ba576112b9611a33565b5b60006112c8858286016111dd565b92505060206112d9858286016111f2565b9150509250929050565b6000602082840312156112f9576112f8611a33565b5b6000611307848285016111f2565b91505092915050565b60006020828403121561132657611325611a33565b5b600061133484828501611207565b91505092915050565b611346816118b7565b82525050565b611355816118d5565b82525050565b61136c611367826118d5565b611961565b82525050565b600061137d82611775565b6113878185611780565b935061139781856020860161192e565b6113a081611a38565b840191505092915050565b6113b48161191c565b82525050565b60006113c7601583611791565b91506113d282611a49565b602082019050919050565b60006113ea602b83611791565b91506113f582611a72565b604082019050919050565b600061140d601983611791565b915061141882611ac1565b602082019050919050565b6000611430601283611791565b915061143b82611aea565b602082019050919050565b6000611453601f83611791565b915061145e82611b13565b602082019050919050565b6000611476602a83611791565b915061148182611b3c565b604082019050919050565b6000611499601983611791565b91506114a482611b8b565b602082019050919050565b6114b881611912565b82525050565b6114cf6114ca82611912565b61196b565b82525050565b60006114e1828561135b565b6020820191506114f182846114be565b6020820191508190509392505050565b6000602082019050611516600083018461133d565b92915050565b6000604082019050611531600083018561133d565b61153e60208301846114af565b9392505050565b600060608201905061155a600083018661133d565b61156760208301856114af565b81810360408301526115798184611372565b9050949350505050565b6000608082019050611598600083018761133d565b6115a560208301866114af565b6115b260408301856113ab565b6115bf60608301846114af565b95945050505050565b60006020820190506115dd600083018461134c565b92915050565b60006040820190506115f8600083018561134c565b61160560208301846114af565b9392505050565b6000608082019050611621600083018761134c565b61162e60208301866114af565b61163b604083018561133d565b61164860608301846114af565b95945050505050565b6000602082019050818103600083015261166a816113ba565b9050919050565b6000602082019050818103600083015261168a816113dd565b9050919050565b600060208201905081810360008301526116aa81611400565b9050919050565b600060208201905081810360008301526116ca81611423565b9050919050565b600060208201905081810360008301526116ea81611446565b9050919050565b6000602082019050818103600083015261170a81611469565b9050919050565b6000602082019050818103600083015261172a8161148c565b9050919050565b600060208201905061174660008301846114af565b92915050565b600060408201905061176160008301856114af565b61176e60208301846114af565b9392505050565b600081519050919050565b600082825260208201905092915050565b600082825260208201905092915050565b60006117ad82611912565b91506117b883611912565b9250827fffffffffffffffffffffffffffffffffffffffffffffffffffffffffffffffff038211156117ed576117ec6119a6565b5b828201905092915050565b600061180382611912565b915061180e83611912565b92508261181e5761181d6119d5565b5b828204905092915050565b600061183482611912565b915061183f83611912565b9250817fffffffffffffffffffffffffffffffffffffffffffffffffffffffffffffffff0483118215151615611878576118776119a6565b5b828202905092915050565b600061188e82611912565b915061189983611912565b9250828210156118ac576118ab6119a6565b5b828203905092915050565b60006118c2826118f2565b9050919050565b60008115159050919050565b6000819050919050565b60008190506118ed82611bb4565b919050565b600073ffffffffffffffffffffffffffffffffffffffff82169050919050565b6000819050919050565b6000611927826118df565b9050919050565b60005b8381101561194c578082015181840152602081019050611931565b8381111561195b576000848401525b50505050565b6000819050919050565b6000819050919050565b600061198082611912565b915061198b83611912565b92508261199b5761199a6119d5565b5b828206905092915050565b7f4e487b7100000000000000000000000000000000000000000000000000000000600052601160045260246000fd5b7f4e487b7100000000000000000000000000000000000000000000000000000000600052601260045260246000fd5b7f4e487b7100000000000000000000000000000000000000000000000000000000600052602160045260246000fd5b600080fd5b6000601f19601f8301169050919050565b7f596f75206d75737420626520746865206f776e65720000000000000000000000600082015250565b7f4e6f7420656e6f756768204c494e4b202d2066696c6c20636f6e74726163742060008201527f7769746820666175636574000000000000000000000000000000000000000000602082015250565b7f426574206d7573742062652061626f7665206d696e696d756d00000000000000600082015250565b7f556e61626c6520746f207472616e736665720000000000000000000000000000600082015250565b7f4f6e6c7920565246436f6f7264696e61746f722063616e2066756c66696c6c00600082015250565b7f4e6f7420656e6f756768206d61746963206c6971756964697479206f6e20746860008201527f6520636f6e747261637400000000000000000000000000000000000000000000602082015250565b7f426574206d7573742062652062656c6f77206d6178696d756d00000000000000600082015250565b60038110611bc557611bc4611a04565b5b50565b611bd1816118b7565b8114611bdc57600080fd5b50565b611be8816118c9565b8114611bf357600080fd5b50565b611bff816118d5565b8114611c0a57600080fd5b50565b611c1681611912565b8114611c2157600080fd5b5056fea26469706673582212209a37093859e3b048cfa1cefcd47119ad9106ecd80f5d10f9dde3b9e35256b59e64736f6c63430008050033",
  "immutableReferences": {
    "552": [
      {
        "length": 32,
        "start": 1285
      },
      {
        "length": 32,
        "start": 2273
      },
      {
        "length": 32,
        "start": 2751
      },
      {
        "length": 32,
        "start": 2812
      },
      {
        "length": 32,
        "start": 3438
      }
    ],
    "554": [
      {
        "length": 32,
        "start": 3157
      },
      {
        "length": 32,
        "start": 3498
      }
    ]
  },
  "source": "// SPDX-License-Identifier: MIT\npragma solidity 0.8.5;\n\nimport \"./dependencies/VRFConsumerBase.sol\";\n\n/**\n  * Network: Kovan\n  * Chainlink VRF Coordinator address: 0xdD3782915140c8f3b190B5D67eAc6dc5760C46E9\n  * LINK token address:                0xa36085F69e2889c224210F603D836748e7dC0088\n  * Key Hash: 0x6c3699283bda56ad74f6b855546325b68d482e983852a7a82979cc4807b641f4\n  * Fee: 0.1\n  */\n/**\n  * Network: Mumbai\n  * Chainlink VRF Coordinator address: 0x8C7382F9D8f56b33781fE506E897a4F1e2d17255\n  * LINK token address:                0x326C977E6efc84E512bB9C30f76E30c160eD06FB\n  * Key Hash: 0x6e75b569a01ef56d18cab6a8e71e6600d6ce853834d4a5748b720d06f878b3a4\n  * Fee: 0.0001\n  */\n/**\n  * Network: Matic\n  * Chainlink VRF Coordinator address: 0x3d2341ADb2D31f1c5530cDC622016af293177AE0\n  * LINK token address:                0xb0897686c545045aFc77CF20eC7A532E3120E0F1\n  * Key Hash: 0xf86195cf7690c55907b2b611ebb7343a6f649bff128701cc542f0569e2c549da\n  * Fee: 0.0001\n  */\n\ncontract DiceGame is VRFConsumerBase {\n  address owner;\n  uint256 public bet_percentage_fee = 1000;// 10.00%\n  uint256 public minimum_bet = 0.01 ether;\n  uint256 public maximum_bet = 50 ether;\n  \n  enum Result { Pending, PlayerWon, PlayerLost }\n  struct Game {\n    address player;\n    uint256 bet_amount;\n    Result result;\n    uint256 selection;\n  }\n\n  event GameResult(\n    address indexed player,\n    Result indexed result,\n    uint256 bet_amount,\n    uint256 transfered_to_player\n  );\n\n  // Chainlink internal setup\n  bytes32 internal keyHash = 0x6c3699283bda56ad74f6b855546325b68d482e983852a7a82979cc4807b641f4;\n  uint256 internal fee = 0.1 * 10 ** 18;\n\n  // Random handlers\n  mapping(bytes32 => Game) public games;\n  mapping(address => bytes32) public player_request_id;\n\n  constructor()\n  public\n  VRFConsumerBase(\n    0xdD3782915140c8f3b190B5D67eAc6dc5760C46E9 /* VRF Coordinator */,\n    0xa36085F69e2889c224210F603D836748e7dC0088 /* Link Contract */)\n  {\n    owner = msg.sender;\n  }\n\n  function roll(uint256 selection) public payable returns (bytes32 _requestId)\n  {\n    require(LINK.balanceOf(address(this)) > fee, \"Not enough LINK - fill contract with faucet\");\n    require(msg.value <= address(this).balance, \"Not enough matic liquidity on the contract\");\n    require(msg.value >= minimum_bet, \"Bet must be above minimum\");\n    require(msg.value <= maximum_bet, \"Bet must be below maximum\");\n\n    bytes32 requestId = requestRandomness(keyHash, fee);\n\n    games[requestId].player = msg.sender;\n    games[requestId].bet_amount = msg.value;\n    games[requestId].selection = selection;\n    player_request_id[msg.sender] = requestId;\n\n    return requestId;\n  }\n\n  function fulfillRandomness(bytes32 requestId, uint256 randomness) internal override\n  {\n    address player = games[requestId].player;\n    uint256 transfered_to_player = 0;\n    \n    if(randomness%2 == games[requestId].selection)\n    {\n      games[requestId].result = Result.PlayerWon;\n    }else\n    {\n      games[requestId].result = Result.PlayerLost;\n    }\n\n    if(games[requestId].result == Result.PlayerWon)\n    {\n      uint256 reward = games[requestId].bet_amount * 2;\n      uint256 _fee = reward * bet_percentage_fee / 10000;\n      transfered_to_player = reward - _fee;\n      payable(player).transfer(\n        transfered_to_player\n      );\n    }\n\n    emit GameResult(\n      player,\n      games[requestId].result,\n      games[requestId].bet_amount,\n      transfered_to_player\n    );\n  }\n\n  // Owner functions\n  modifier isOwner()\n  {\n    require(msg.sender == owner, \"You must be the owner\");\n    _;\n  }\n  \n  function withdrawFunds(uint256 amount) public isOwner()\n  {\n    payable(msg.sender).transfer(amount);\n  }\n\n  function withdrawLink() external isOwner() {\n    require(LINK.transfer(msg.sender, LINK.balanceOf(address(this))), \"Unable to transfer\");\n  }\n\n  function setOwner(address new_owner) public isOwner()\n  {\n    owner = new_owner;\n  }\n\n  function setBetPercentageFee(uint256 percentage) public isOwner()\n  {\n    bet_percentage_fee = percentage;\n  }\n\n  function setMinimumBet(uint256 amount) public isOwner()\n  {\n    minimum_bet = amount;\n  }\n\n  function setMaximumBet(uint256 amount) public isOwner()\n  {\n    maximum_bet = amount;\n  }\n\n  // Misc\n  fallback() external payable {}\n  receive() external payable {}\n  \n  function getLinkBalance() public view returns(uint256)\n  {\n    return LINK.balanceOf(address(this));\n  }\n}",
  "sourcePath": "/home/turupawn/Projects/Toaster/contracts/TestgroundGame.sol",
  "compiler": {
    "name": "solc",
    "version": "0.8.5+commit.a4f2e591.Emscripten.clang"
  },
  "schemaVersion": "3.3.4",
  "updatedAt": "2021-07-03T07:01:46.365Z",
  "networkType": "ethereum",
  "devdoc": {
    "kind": "dev",
    "methods": {},
    "version": 1
  },
  "userdoc": {
    "kind": "user",
    "methods": {},
    "notice": "Network: Matic Chainlink VRF Coordinator address: 0x3d2341ADb2D31f1c5530cDC622016af293177AE0 LINK token address:                0xb0897686c545045aFc77CF20eC7A532E3120E0F1 Key Hash: 0xf86195cf7690c55907b2b611ebb7343a6f649bff128701cc542f0569e2c549da Fee: 0.0001",
    "version": 1
  }
}