{
  "contractName": "DiceGame",
  "abi": [
    {
      "inputs": [],
      "stateMutability": "nonpayable",
      "type": "constructor"
    },
    {
      "stateMutability": "payable",
      "type": "fallback",
      "payable": true
    },
    {
      "inputs": [
        {
          "internalType": "bytes32",
          "name": "",
          "type": "bytes32"
        }
      ],
      "name": "games",
      "outputs": [
        {
          "internalType": "address",
          "name": "player",
          "type": "address"
        },
        {
          "internalType": "uint256",
          "name": "random_number",
          "type": "uint256"
        },
        {
          "internalType": "uint256",
          "name": "roll_amount",
          "type": "uint256"
        },
        {
          "internalType": "uint256",
          "name": "selection",
          "type": "uint256"
        }
      ],
      "stateMutability": "view",
      "type": "function",
      "constant": true
    },
    {
      "inputs": [
        {
          "internalType": "address",
          "name": "",
          "type": "address"
        }
      ],
      "name": "player_request_id",
      "outputs": [
        {
          "internalType": "bytes32",
          "name": "",
          "type": "bytes32"
        }
      ],
      "stateMutability": "view",
      "type": "function",
      "constant": true
    },
    {
      "inputs": [
        {
          "internalType": "address",
          "name": "",
          "type": "address"
        }
      ],
      "name": "player_status",
      "outputs": [
        {
          "internalType": "enum DiceGame.Status",
          "name": "",
          "type": "uint8"
        }
      ],
      "stateMutability": "view",
      "type": "function",
      "constant": true
    },
    {
      "inputs": [
        {
          "internalType": "bytes32",
          "name": "requestId",
          "type": "bytes32"
        },
        {
          "internalType": "uint256",
          "name": "randomness",
          "type": "uint256"
        }
      ],
      "name": "rawFulfillRandomness",
      "outputs": [],
      "stateMutability": "nonpayable",
      "type": "function"
    },
    {
      "inputs": [
        {
          "internalType": "uint256",
          "name": "userProvidedSeed",
          "type": "uint256"
        },
        {
          "internalType": "uint256",
          "name": "selection",
          "type": "uint256"
        }
      ],
      "name": "roll",
      "outputs": [
        {
          "internalType": "bytes32",
          "name": "_requestId",
          "type": "bytes32"
        }
      ],
      "stateMutability": "payable",
      "type": "function",
      "payable": true
    },
    {
      "inputs": [
        {
          "internalType": "uint256",
          "name": "amount",
          "type": "uint256"
        }
      ],
      "name": "retrieveFunds",
      "outputs": [],
      "stateMutability": "nonpayable",
      "type": "function"
    },
    {
      "inputs": [],
      "name": "getLinkBalance",
      "outputs": [
        {
          "internalType": "uint256",
          "name": "",
          "type": "uint256"
        }
      ],
      "stateMutability": "view",
      "type": "function",
      "constant": true
    }
  ],
  "bytecode": "0x60c0604052600a6002557f6e75b569a01ef56d18cab6a8e71e6600d6ce853834d4a5748b720d06f878b3a460001b600355655af3107a400060045534801561004657600080fd5b50738c7382f9d8f56b33781fe506e897a4f1e2d1725573326c977e6efc84e512bb9c30f76e30c160ed06fb8173ffffffffffffffffffffffffffffffffffffffff1660a08173ffffffffffffffffffffffffffffffffffffffff1660601b815250508073ffffffffffffffffffffffffffffffffffffffff1660808173ffffffffffffffffffffffffffffffffffffffff1660601b81525050505033600160006101000a81548173ffffffffffffffffffffffffffffffffffffffff021916908373ffffffffffffffffffffffffffffffffffffffff16021790555060805160601c60a05160601c6111ad6101626000396000818161055b0152610777015260008181610202015281816102b5015261073b01526111ad6000f3fe6080604052600436106100745760003560e01c806394985ddd1161004e57806394985ddd1461010f578063b6071cc614610138578063f579f88214610175578063fc41491e146101b557610075565b806338c6d3441461007757806350c5f975146100b45780636ec9b897146100df57610075565b5b005b34801561008357600080fd5b5061009e60048036038101906100999190610a1a565b6101de565b6040516100ab9190610ea1565b60405180910390f35b3480156100c057600080fd5b506100c96101fe565b6040516100d69190610f3c565b60405180910390f35b6100f960048036038101906100f49190610b23565b6102ae565b6040516101069190610e18565b60405180910390f35b34801561011b57600080fd5b5061013660048036038101906101319190610a95565b610559565b005b34801561014457600080fd5b5061015f600480360381019061015a9190610a1a565b6105f5565b60405161016c9190610e18565b60405180910390f35b34801561018157600080fd5b5061019c60048036038101906101979190610a6c565b61060d565b6040516101ac9493929190610dd3565b60405180910390f35b3480156101c157600080fd5b506101dc60048036038101906101d79190610ad1565b61065d565b005b60066020528060005260406000206000915054906101000a900460ff1681565b60007f000000000000000000000000000000000000000000000000000000000000000073ffffffffffffffffffffffffffffffffffffffff166370a08231306040518263ffffffff1660e01b81526004016102599190610d7a565b60206040518083038186803b15801561027157600080fd5b505afa158015610285573d6000803e3d6000fd5b505050506040513d601f19601f820116820180604052508101906102a99190610afa565b905090565b60006004547f000000000000000000000000000000000000000000000000000000000000000073ffffffffffffffffffffffffffffffffffffffff166370a08231306040518263ffffffff1660e01b815260040161030c9190610d7a565b60206040518083038186803b15801561032457600080fd5b505afa158015610338573d6000803e3d6000fd5b505050506040513d601f19601f8201168201806040525081019061035c9190610afa565b1161039c576040517f08c379a000000000000000000000000000000000000000000000000000000000815260040161039390610ebc565b60405180910390fd5b473411156103df576040517f08c379a00000000000000000000000000000000000000000000000000000000081526004016103d690610f1c565b60405180910390fd5b60006103f060035460045486610737565b9050336005600083815260200190815260200160002060000160006101000a81548173ffffffffffffffffffffffffffffffffffffffff021916908373ffffffffffffffffffffffffffffffffffffffff1602179055503460056000838152602001908152602001600020600201819055508260056000838152602001908152602001600020600301819055506001600660003373ffffffffffffffffffffffffffffffffffffffff1673ffffffffffffffffffffffffffffffffffffffff16815260200190815260200160002060006101000a81548160ff02191690836001811115610506577f4e487b7100000000000000000000000000000000000000000000000000000000600052602160045260246000fd5b021790555080600760003373ffffffffffffffffffffffffffffffffffffffff1673ffffffffffffffffffffffffffffffffffffffff168152602001908152602001600020819055508091505092915050565b7f000000000000000000000000000000000000000000000000000000000000000073ffffffffffffffffffffffffffffffffffffffff163373ffffffffffffffffffffffffffffffffffffffff16146105e7576040517f08c379a00000000000000000000000000000000000000000000000000000000081526004016105de90610efc565b60405180910390fd5b6105f18282610895565b5050565b60076020528060005260406000206000915090505481565b60056020528060005260406000206000915090508060000160009054906101000a900473ffffffffffffffffffffffffffffffffffffffff16908060010154908060020154908060030154905084565b600160009054906101000a900473ffffffffffffffffffffffffffffffffffffffff1673ffffffffffffffffffffffffffffffffffffffff163373ffffffffffffffffffffffffffffffffffffffff16146106ed576040517f08c379a00000000000000000000000000000000000000000000000000000000081526004016106e490610edc565b60405180910390fd5b3373ffffffffffffffffffffffffffffffffffffffff166108fc829081150290604051600060405180830381858888f19350505050158015610733573d6000803e3d6000fd5b5050565b60007f000000000000000000000000000000000000000000000000000000000000000073ffffffffffffffffffffffffffffffffffffffff16634000aea07f00000000000000000000000000000000000000000000000000000000000000008587866040516020016107aa929190610e33565b6040516020818303038152906040526040518463ffffffff1660e01b81526004016107d793929190610d95565b602060405180830381600087803b1580156107f157600080fd5b505af1158015610805573d6000803e3d6000fd5b505050506040513d601f19601f820116820180604052508101906108299190610a43565b50600061084a8584306000808a815260200190815260200160002054610942565b905060016000808781526020019081526020016000205461086b9190610f84565b6000808781526020019081526020016000208190555061088b858261097e565b9150509392505050565b8060056000848152602001908152602001600020600101819055506000600660003373ffffffffffffffffffffffffffffffffffffffff1673ffffffffffffffffffffffffffffffffffffffff16815260200190815260200160002060006101000a81548160ff02191690836001811115610939577f4e487b7100000000000000000000000000000000000000000000000000000000600052602160045260246000fd5b02179055505050565b60008484848460405160200161095b9493929190610e5c565b6040516020818303038152906040528051906020012060001c9050949350505050565b60008282604051602001610993929190610d4e565b60405160208183030381529060405280519060200120905092915050565b6000813590506109c08161111b565b92915050565b6000815190506109d581611132565b92915050565b6000813590506109ea81611149565b92915050565b6000813590506109ff81611160565b92915050565b600081519050610a1481611160565b92915050565b600060208284031215610a2c57600080fd5b6000610a3a848285016109b1565b91505092915050565b600060208284031215610a5557600080fd5b6000610a63848285016109c6565b91505092915050565b600060208284031215610a7e57600080fd5b6000610a8c848285016109db565b91505092915050565b60008060408385031215610aa857600080fd5b6000610ab6858286016109db565b9250506020610ac7858286016109f0565b9150509250929050565b600060208284031215610ae357600080fd5b6000610af1848285016109f0565b91505092915050565b600060208284031215610b0c57600080fd5b6000610b1a84828501610a05565b91505092915050565b60008060408385031215610b3657600080fd5b6000610b44858286016109f0565b9250506020610b55858286016109f0565b9150509250929050565b610b6881610fda565b82525050565b610b7781610ff8565b82525050565b610b8e610b8982610ff8565b611084565b82525050565b6000610b9f82610f57565b610ba98185610f62565b9350610bb9818560208601611051565b610bc2816110f6565b840191505092915050565b610bd68161103f565b82525050565b6000610be9602b83610f73565b91507f4e6f7420656e6f756768204c494e4b202d2066696c6c20636f6e74726163742060008301527f77697468206661756365740000000000000000000000000000000000000000006020830152604082019050919050565b6000610c4f601c83610f73565b91507f4f6e6c7920746865206f776e65722063616e2063616c6c2074686973000000006000830152602082019050919050565b6000610c8f601f83610f73565b91507f4f6e6c7920565246436f6f7264696e61746f722063616e2066756c66696c6c006000830152602082019050919050565b6000610ccf602a83610f73565b91507f4e6f7420656e6f756768206d61746963206c6971756964697479206f6e20746860008301527f6520636f6e7472616374000000000000000000000000000000000000000000006020830152604082019050919050565b610d3181611035565b82525050565b610d48610d4382611035565b61108e565b82525050565b6000610d5a8285610b7d565b602082019150610d6a8284610d37565b6020820191508190509392505050565b6000602082019050610d8f6000830184610b5f565b92915050565b6000606082019050610daa6000830186610b5f565b610db76020830185610d28565b8181036040830152610dc98184610b94565b9050949350505050565b6000608082019050610de86000830187610b5f565b610df56020830186610d28565b610e026040830185610d28565b610e0f6060830184610d28565b95945050505050565b6000602082019050610e2d6000830184610b6e565b92915050565b6000604082019050610e486000830185610b6e565b610e556020830184610d28565b9392505050565b6000608082019050610e716000830187610b6e565b610e7e6020830186610d28565b610e8b6040830185610b5f565b610e986060830184610d28565b95945050505050565b6000602082019050610eb66000830184610bcd565b92915050565b60006020820190508181036000830152610ed581610bdc565b9050919050565b60006020820190508181036000830152610ef581610c42565b9050919050565b60006020820190508181036000830152610f1581610c82565b9050919050565b60006020820190508181036000830152610f3581610cc2565b9050919050565b6000602082019050610f516000830184610d28565b92915050565b600081519050919050565b600082825260208201905092915050565b600082825260208201905092915050565b6000610f8f82611035565b9150610f9a83611035565b9250827fffffffffffffffffffffffffffffffffffffffffffffffffffffffffffffffff03821115610fcf57610fce611098565b5b828201905092915050565b6000610fe582611015565b9050919050565b60008115159050919050565b6000819050919050565b600081905061101082611107565b919050565b600073ffffffffffffffffffffffffffffffffffffffff82169050919050565b6000819050919050565b600061104a82611002565b9050919050565b60005b8381101561106f578082015181840152602081019050611054565b8381111561107e576000848401525b50505050565b6000819050919050565b6000819050919050565b7f4e487b7100000000000000000000000000000000000000000000000000000000600052601160045260246000fd5b7f4e487b7100000000000000000000000000000000000000000000000000000000600052602160045260246000fd5b6000601f19601f8301169050919050565b60028110611118576111176110c7565b5b50565b61112481610fda565b811461112f57600080fd5b50565b61113b81610fec565b811461114657600080fd5b50565b61115281610ff8565b811461115d57600080fd5b50565b61116981611035565b811461117457600080fd5b5056fea26469706673582212208af2f74a74c1c7cb5a31b7ea309db711445d6fb67c225231f1a4924fc984759764736f6c63430008000033",
  "immutableReferences": {
    "407": [
      {
        "length": 32,
        "start": 514
      },
      {
        "length": 32,
        "start": 693
      },
      {
        "length": 32,
        "start": 1851
      }
    ],
    "409": [
      {
        "length": 32,
        "start": 1371
      },
      {
        "length": 32,
        "start": 1911
      }
    ]
  },
  "source": "// SPDX-License-Identifier: MIT\npragma solidity 0.8.0;\n\nimport \"./dependencies/VRFConsumerBase.sol\";\n\ncontract DiceGame is VRFConsumerBase {\n  address owner;\n  uint256 roll_percentage_fee = 10;\n  enum Status { Finished, WaitingForOracle }\n  struct Game {\n    address player;\n    uint256 random_number;\n    uint256 roll_amount;\n    uint256 selection;\n  }\n\n  // Chainlink internal setup\n  bytes32 internal keyHash = 0x6e75b569a01ef56d18cab6a8e71e6600d6ce853834d4a5748b720d06f878b3a4;\n  uint256 internal fee = 0.0001 * 10 ** 18;\n\n  // Random handlers\n  mapping(bytes32 => Game) public games;\n  mapping(address => Status) public player_status;\n  mapping(address => bytes32) public player_request_id;\n\n  constructor()\n  public\n  VRFConsumerBase(\n    0x8C7382F9D8f56b33781fE506E897a4F1e2d17255 /* VRF Coordinator */,\n    0x326C977E6efc84E512bB9C30f76E30c160eD06FB /* Link Mumbai Token Contract */)\n  {\n    owner = msg.sender;\n  }\n\n  function roll(uint256 userProvidedSeed, uint256 selection) public payable returns (bytes32 _requestId) {\n    require(LINK.balanceOf(address(this)) > fee, \"Not enough LINK - fill contract with faucet\");\n    require(msg.value <= address(this).balance, \"Not enough matic liquidity on the contract\");\n\n    bytes32 requestId = requestRandomness(keyHash, fee, userProvidedSeed);\n\n    games[requestId].player = msg.sender;\n    games[requestId].roll_amount = msg.value;\n    games[requestId].selection = selection;\n    player_status[msg.sender] = Status.WaitingForOracle;\n    player_request_id[msg.sender] = requestId;\n\n    return requestId;\n  }\n\n  function fulfillRandomness(bytes32 requestId, uint256 randomnes) internal override {\n    games[requestId].random_number = randomnes;\n    player_status[msg.sender] = Status.Finished;\n  }\n\n  function retrieveFunds(uint256 amount) public {\n    require(msg.sender == owner, \"Only the owner can call this\");\n    payable(msg.sender).transfer(amount);\n  }\n\n  function getLinkBalance() public view returns(uint256)\n  {\n    return LINK.balanceOf(address(this));\n  }\n\n  fallback() external payable {}\n}",
  "sourcePath": "/home/turupawn/Projects/Blockchain/Games/MaticDiceGame/contracts/TestgroundGame.sol",
  "compiler": {
    "name": "solc",
    "version": "0.8.0+commit.c7dfd78e.Emscripten.clang"
  },
  "schemaVersion": "3.3.4",
  "updatedAt": "2021-06-05T22:08:35.627Z",
  "networkType": "ethereum",
  "devdoc": {
    "kind": "dev",
    "methods": {},
    "version": 1
  },
  "userdoc": {
    "kind": "user",
    "methods": {},
    "version": 1
  }
}