{
  "contractName": "DiceGame",
  "abi": [
    {
      "inputs": [],
      "stateMutability": "nonpayable",
      "type": "constructor"
    },
    {
      "anonymous": false,
      "inputs": [
        {
          "indexed": true,
          "internalType": "address",
          "name": "player",
          "type": "address"
        },
        {
          "indexed": true,
          "internalType": "enum DiceGame.Result",
          "name": "result",
          "type": "uint8"
        },
        {
          "indexed": false,
          "internalType": "uint256",
          "name": "bet_amount",
          "type": "uint256"
        },
        {
          "indexed": false,
          "internalType": "uint256",
          "name": "transfered_to_player",
          "type": "uint256"
        }
      ],
      "name": "GameResult",
      "type": "event"
    },
    {
      "stateMutability": "payable",
      "type": "fallback",
      "payable": true
    },
    {
      "inputs": [],
      "name": "bet_percentage_fee",
      "outputs": [
        {
          "internalType": "uint256",
          "name": "",
          "type": "uint256"
        }
      ],
      "stateMutability": "view",
      "type": "function",
      "constant": true
    },
    {
      "inputs": [
        {
          "internalType": "bytes32",
          "name": "",
          "type": "bytes32"
        }
      ],
      "name": "games",
      "outputs": [
        {
          "internalType": "address",
          "name": "player",
          "type": "address"
        },
        {
          "internalType": "uint256",
          "name": "bet_amount",
          "type": "uint256"
        },
        {
          "internalType": "enum DiceGame.Result",
          "name": "result",
          "type": "uint8"
        },
        {
          "internalType": "uint256",
          "name": "selection",
          "type": "uint256"
        }
      ],
      "stateMutability": "view",
      "type": "function",
      "constant": true
    },
    {
      "inputs": [],
      "name": "maximum_bet",
      "outputs": [
        {
          "internalType": "uint256",
          "name": "",
          "type": "uint256"
        }
      ],
      "stateMutability": "view",
      "type": "function",
      "constant": true
    },
    {
      "inputs": [],
      "name": "minimum_bet",
      "outputs": [
        {
          "internalType": "uint256",
          "name": "",
          "type": "uint256"
        }
      ],
      "stateMutability": "view",
      "type": "function",
      "constant": true
    },
    {
      "inputs": [
        {
          "internalType": "address",
          "name": "",
          "type": "address"
        }
      ],
      "name": "player_request_id",
      "outputs": [
        {
          "internalType": "bytes32",
          "name": "",
          "type": "bytes32"
        }
      ],
      "stateMutability": "view",
      "type": "function",
      "constant": true
    },
    {
      "inputs": [
        {
          "internalType": "address",
          "name": "",
          "type": "address"
        }
      ],
      "name": "player_status",
      "outputs": [
        {
          "internalType": "enum DiceGame.Status",
          "name": "",
          "type": "uint8"
        }
      ],
      "stateMutability": "view",
      "type": "function",
      "constant": true
    },
    {
      "inputs": [
        {
          "internalType": "bytes32",
          "name": "requestId",
          "type": "bytes32"
        },
        {
          "internalType": "uint256",
          "name": "randomness",
          "type": "uint256"
        }
      ],
      "name": "rawFulfillRandomness",
      "outputs": [],
      "stateMutability": "nonpayable",
      "type": "function"
    },
    {
      "stateMutability": "payable",
      "type": "receive",
      "payable": true
    },
    {
      "inputs": [
        {
          "internalType": "uint256",
          "name": "userProvidedSeed",
          "type": "uint256"
        },
        {
          "internalType": "uint256",
          "name": "selection",
          "type": "uint256"
        }
      ],
      "name": "roll",
      "outputs": [
        {
          "internalType": "bytes32",
          "name": "_requestId",
          "type": "bytes32"
        }
      ],
      "stateMutability": "payable",
      "type": "function",
      "payable": true
    },
    {
      "inputs": [
        {
          "internalType": "uint256",
          "name": "userProvidedSeed",
          "type": "uint256"
        }
      ],
      "name": "getRandomNumber",
      "outputs": [
        {
          "internalType": "bytes32",
          "name": "requestId",
          "type": "bytes32"
        }
      ],
      "stateMutability": "nonpayable",
      "type": "function"
    },
    {
      "inputs": [
        {
          "internalType": "uint256",
          "name": "amount",
          "type": "uint256"
        }
      ],
      "name": "retrieveFunds",
      "outputs": [],
      "stateMutability": "nonpayable",
      "type": "function"
    },
    {
      "inputs": [
        {
          "internalType": "address",
          "name": "new_owner",
          "type": "address"
        }
      ],
      "name": "setOwner",
      "outputs": [],
      "stateMutability": "nonpayable",
      "type": "function"
    },
    {
      "inputs": [
        {
          "internalType": "uint256",
          "name": "percentage",
          "type": "uint256"
        }
      ],
      "name": "setBetPercentageFee",
      "outputs": [],
      "stateMutability": "nonpayable",
      "type": "function"
    },
    {
      "inputs": [
        {
          "internalType": "uint256",
          "name": "amount",
          "type": "uint256"
        }
      ],
      "name": "setMinimumBet",
      "outputs": [],
      "stateMutability": "nonpayable",
      "type": "function"
    },
    {
      "inputs": [
        {
          "internalType": "uint256",
          "name": "amount",
          "type": "uint256"
        }
      ],
      "name": "setMaximumBet",
      "outputs": [],
      "stateMutability": "nonpayable",
      "type": "function"
    },
    {
      "inputs": [],
      "name": "withdrawLink",
      "outputs": [],
      "stateMutability": "nonpayable",
      "type": "function"
    },
    {
      "inputs": [],
      "name": "getLinkBalance",
      "outputs": [
        {
          "internalType": "uint256",
          "name": "",
          "type": "uint256"
        }
      ],
      "stateMutability": "view",
      "type": "function",
      "constant": true
    }
  ],
  "bytecode": "0x60c06040526103e8600255600060035568056bc75e2d631000006004557f6c3699283bda56ad74f6b855546325b68d482e983852a7a82979cc4807b641f460001b60055567016345785d8a000060065534801561005b57600080fd5b5073dd3782915140c8f3b190b5d67eac6dc5760c46e973a36085f69e2889c224210f603d836748e7dc00888173ffffffffffffffffffffffffffffffffffffffff1660a08173ffffffffffffffffffffffffffffffffffffffff1660601b815250508073ffffffffffffffffffffffffffffffffffffffff1660808173ffffffffffffffffffffffffffffffffffffffff1660601b81525050505033600160006101000a81548173ffffffffffffffffffffffffffffffffffffffff021916908373ffffffffffffffffffffffffffffffffffffffff16021790555060805160601c60a05160601c61206a61018c60003960008181610cbb0152610fef015260008181610612015281816106c501528181610b2501528181610b6201528181610d5c0152610fb3015261206a6000f3fe6080604052600436106100f75760003560e01c80638772ae3c1161008a578063b6071cc611610059578063b6071cc61461030f578063bc97ee171461034c578063f579f88214610377578063fc41491e146103b7576100fe565b80638772ae3c146102695780638dc654a21461029257806394985ddd146102a9578063b37217a4146102d2576100fe565b80633ba62b9f116100c65780633ba62b9f146101ba57806350c5f975146101e35780636ec9b8971461020e578063845712351461023e576100fe565b806313af403514610100578063208209671461012957806320ae20591461015457806338c6d3441461017d576100fe565b366100fe57005b005b34801561010c57600080fd5b50610127600480360381019061012291906115aa565b6103e0565b005b34801561013557600080fd5b5061013e6104b4565b60405161014b9190611b0d565b60405180910390f35b34801561016057600080fd5b5061017b60048036038101906101769190611661565b6104ba565b005b34801561018957600080fd5b506101a4600480360381019061019f91906115aa565b610554565b6040516101b19190611a12565b60405180910390f35b3480156101c657600080fd5b506101e160048036038101906101dc9190611661565b610574565b005b3480156101ef57600080fd5b506101f861060e565b6040516102059190611b0d565b60405180910390f35b610228600480360381019061022391906116b3565b6106be565b6040516102359190611989565b60405180910390f35b34801561024a57600080fd5b506102536109f3565b6040516102609190611b0d565b60405180910390f35b34801561027557600080fd5b50610290600480360381019061028b9190611661565b6109f9565b005b34801561029e57600080fd5b506102a7610a93565b005b3480156102b557600080fd5b506102d060048036038101906102cb9190611625565b610cb9565b005b3480156102de57600080fd5b506102f960048036038101906102f49190611661565b610d55565b6040516103069190611989565b60405180910390f35b34801561031b57600080fd5b50610336600480360381019061033191906115aa565b610e5a565b6040516103439190611989565b60405180910390f35b34801561035857600080fd5b50610361610e72565b60405161036e9190611b0d565b60405180910390f35b34801561038357600080fd5b5061039e600480360381019061039991906115fc565b610e78565b6040516103ae9493929190611944565b60405180910390f35b3480156103c357600080fd5b506103de60048036038101906103d99190611661565b610ed5565b005b600160009054906101000a900473ffffffffffffffffffffffffffffffffffffffff1673ffffffffffffffffffffffffffffffffffffffff163373ffffffffffffffffffffffffffffffffffffffff1614610470576040517f08c379a000000000000000000000000000000000000000000000000000000000815260040161046790611a6d565b60405180910390fd5b80600160006101000a81548173ffffffffffffffffffffffffffffffffffffffff021916908373ffffffffffffffffffffffffffffffffffffffff16021790555050565b60025481565b600160009054906101000a900473ffffffffffffffffffffffffffffffffffffffff1673ffffffffffffffffffffffffffffffffffffffff163373ffffffffffffffffffffffffffffffffffffffff161461054a576040517f08c379a000000000000000000000000000000000000000000000000000000000815260040161054190611a6d565b60405180910390fd5b8060048190555050565b60086020528060005260406000206000915054906101000a900460ff1681565b600160009054906101000a900473ffffffffffffffffffffffffffffffffffffffff1673ffffffffffffffffffffffffffffffffffffffff163373ffffffffffffffffffffffffffffffffffffffff1614610604576040517f08c379a00000000000000000000000000000000000000000000000000000000081526004016105fb90611a6d565b60405180910390fd5b8060028190555050565b60007f000000000000000000000000000000000000000000000000000000000000000073ffffffffffffffffffffffffffffffffffffffff166370a08231306040518263ffffffff1660e01b815260040161066991906118c2565b60206040518083038186803b15801561068157600080fd5b505afa158015610695573d6000803e3d6000fd5b505050506040513d601f19601f820116820180604052508101906106b9919061168a565b905090565b60006006547f000000000000000000000000000000000000000000000000000000000000000073ffffffffffffffffffffffffffffffffffffffff166370a08231306040518263ffffffff1660e01b815260040161071c91906118c2565b60206040518083038186803b15801561073457600080fd5b505afa158015610748573d6000803e3d6000fd5b505050506040513d601f19601f8201168201806040525081019061076c919061168a565b116107ac576040517f08c379a00000000000000000000000000000000000000000000000000000000081526004016107a390611a2d565b60405180910390fd5b473411156107ef576040517f08c379a00000000000000000000000000000000000000000000000000000000081526004016107e690611acd565b60405180910390fd5b600354341015610834576040517f08c379a000000000000000000000000000000000000000000000000000000000815260040161082b90611a4d565b60405180910390fd5b600454341115610879576040517f08c379a000000000000000000000000000000000000000000000000000000000815260040161087090611aed565b60405180910390fd5b600061088a60055460065486610faf565b9050336007600083815260200190815260200160002060000160006101000a81548173ffffffffffffffffffffffffffffffffffffffff021916908373ffffffffffffffffffffffffffffffffffffffff1602179055503460076000838152602001908152602001600020600101819055508260076000838152602001908152602001600020600301819055506001600860003373ffffffffffffffffffffffffffffffffffffffff1673ffffffffffffffffffffffffffffffffffffffff16815260200190815260200160002060006101000a81548160ff021916908360018111156109a0577f4e487b7100000000000000000000000000000000000000000000000000000000600052602160045260246000fd5b021790555080600960003373ffffffffffffffffffffffffffffffffffffffff1673ffffffffffffffffffffffffffffffffffffffff168152602001908152602001600020819055508091505092915050565b60035481565b600160009054906101000a900473ffffffffffffffffffffffffffffffffffffffff1673ffffffffffffffffffffffffffffffffffffffff163373ffffffffffffffffffffffffffffffffffffffff1614610a89576040517f08c379a0000000000000000000000000000000000000000000000000000000008152600401610a8090611a6d565b60405180910390fd5b8060038190555050565b600160009054906101000a900473ffffffffffffffffffffffffffffffffffffffff1673ffffffffffffffffffffffffffffffffffffffff163373ffffffffffffffffffffffffffffffffffffffff1614610b23576040517f08c379a0000000000000000000000000000000000000000000000000000000008152600401610b1a90611a6d565b60405180910390fd5b7f000000000000000000000000000000000000000000000000000000000000000073ffffffffffffffffffffffffffffffffffffffff1663a9059cbb337f000000000000000000000000000000000000000000000000000000000000000073ffffffffffffffffffffffffffffffffffffffff166370a08231306040518263ffffffff1660e01b8152600401610bb991906118c2565b60206040518083038186803b158015610bd157600080fd5b505afa158015610be5573d6000803e3d6000fd5b505050506040513d601f19601f82011682018060405250810190610c09919061168a565b6040518363ffffffff1660e01b8152600401610c269291906118dd565b602060405180830381600087803b158015610c4057600080fd5b505af1158015610c54573d6000803e3d6000fd5b505050506040513d601f19601f82011682018060405250810190610c7891906115d3565b610cb7576040517f08c379a0000000000000000000000000000000000000000000000000000000008152600401610cae90611a8d565b60405180910390fd5b565b7f000000000000000000000000000000000000000000000000000000000000000073ffffffffffffffffffffffffffffffffffffffff163373ffffffffffffffffffffffffffffffffffffffff1614610d47576040517f08c379a0000000000000000000000000000000000000000000000000000000008152600401610d3e90611aad565b60405180910390fd5b610d51828261110d565b5050565b60006006547f000000000000000000000000000000000000000000000000000000000000000073ffffffffffffffffffffffffffffffffffffffff166370a08231306040518263ffffffff1660e01b8152600401610db391906118c2565b60206040518083038186803b158015610dcb57600080fd5b505afa158015610ddf573d6000803e3d6000fd5b505050506040513d601f19601f82011682018060405250810190610e03919061168a565b1015610e44576040517f08c379a0000000000000000000000000000000000000000000000000000000008152600401610e3b90611a2d565b60405180910390fd5b610e5360055460065484610faf565b9050919050565b60096020528060005260406000206000915090505481565b60045481565b60076020528060005260406000206000915090508060000160009054906101000a900473ffffffffffffffffffffffffffffffffffffffff16908060010154908060020160009054906101000a900460ff16908060030154905084565b600160009054906101000a900473ffffffffffffffffffffffffffffffffffffffff1673ffffffffffffffffffffffffffffffffffffffff163373ffffffffffffffffffffffffffffffffffffffff1614610f65576040517f08c379a0000000000000000000000000000000000000000000000000000000008152600401610f5c90611a6d565b60405180910390fd5b3373ffffffffffffffffffffffffffffffffffffffff166108fc829081150290604051600060405180830381858888f19350505050158015610fab573d6000803e3d6000fd5b5050565b60007f000000000000000000000000000000000000000000000000000000000000000073ffffffffffffffffffffffffffffffffffffffff16634000aea07f00000000000000000000000000000000000000000000000000000000000000008587866040516020016110229291906119a4565b6040516020818303038152906040526040518463ffffffff1660e01b815260040161104f93929190611906565b602060405180830381600087803b15801561106957600080fd5b505af115801561107d573d6000803e3d6000fd5b505050506040513d601f19601f820116820180604052508101906110a191906115d3565b5060006110c28584306000808a8152602001908152602001600020546114d2565b90506001600080878152602001908152602001600020546110e39190611b7e565b60008087815260200190815260200160002081905550611103858261150e565b9150509392505050565b60006007600084815260200190815260200160002060000160009054906101000a900473ffffffffffffffffffffffffffffffffffffffff1690506000600760008581526020019081526020016000206003015460028461116e9190611d76565b14156111de5760016007600086815260200190815260200160002060020160006101000a81548160ff021916908360028111156111d4577f4e487b7100000000000000000000000000000000000000000000000000000000600052602160045260246000fd5b0217905550611244565b60026007600086815260200190815260200160002060020160006101000a81548160ff0219169083600281111561123e577f4e487b7100000000000000000000000000000000000000000000000000000000600052602160045260246000fd5b02179055505b6001600281111561127e577f4e487b7100000000000000000000000000000000000000000000000000000000600052602160045260246000fd5b6007600086815260200190815260200160002060020160009054906101000a900460ff1660028111156112da577f4e487b7100000000000000000000000000000000000000000000000000000000600052602160045260246000fd5b141561137c5761271060025460076000878152602001908152602001600020600101546113079190611c05565b6113119190611bd4565b60076000868152602001908152602001600020600101546113329190611c5f565b90508173ffffffffffffffffffffffffffffffffffffffff166108fc829081150290604051600060405180830381858888f1935050505015801561137a573d6000803e3d6000fd5b505b6000600860008473ffffffffffffffffffffffffffffffffffffffff1673ffffffffffffffffffffffffffffffffffffffff16815260200190815260200160002060006101000a81548160ff02191690836001811115611405577f4e487b7100000000000000000000000000000000000000000000000000000000600052602160045260246000fd5b02179055506007600085815260200190815260200160002060020160009054906101000a900460ff166002811115611466577f4e487b7100000000000000000000000000000000000000000000000000000000600052602160045260246000fd5b8273ffffffffffffffffffffffffffffffffffffffff167fbe47df9f3d33d4569fa7aa0c052843bcca36cb2e6ca8d375c6884ccbb29101746007600088815260200190815260200160002060010154846040516114c4929190611b28565b60405180910390a350505050565b6000848484846040516020016114eb94939291906119cd565b6040516020818303038152906040528051906020012060001c9050949350505050565b60008282604051602001611523929190611896565b60405160208183030381529060405280519060200120905092915050565b60008135905061155081611fd8565b92915050565b60008151905061156581611fef565b92915050565b60008135905061157a81612006565b92915050565b60008135905061158f8161201d565b92915050565b6000815190506115a48161201d565b92915050565b6000602082840312156115bc57600080fd5b60006115ca84828501611541565b91505092915050565b6000602082840312156115e557600080fd5b60006115f384828501611556565b91505092915050565b60006020828403121561160e57600080fd5b600061161c8482850161156b565b91505092915050565b6000806040838503121561163857600080fd5b60006116468582860161156b565b925050602061165785828601611580565b9150509250929050565b60006020828403121561167357600080fd5b600061168184828501611580565b91505092915050565b60006020828403121561169c57600080fd5b60006116aa84828501611595565b91505092915050565b600080604083850312156116c657600080fd5b60006116d485828601611580565b92505060206116e585828601611580565b9150509250929050565b6116f881611c93565b82525050565b61170781611cb1565b82525050565b61171e61171982611cb1565b611d62565b82525050565b600061172f82611b51565b6117398185611b5c565b9350611749818560208601611d2f565b61175281611e34565b840191505092915050565b61176681611d0b565b82525050565b61177581611d1d565b82525050565b6000611788602b83611b6d565b915061179382611e45565b604082019050919050565b60006117ab601983611b6d565b91506117b682611e94565b602082019050919050565b60006117ce601683611b6d565b91506117d982611ebd565b602082019050919050565b60006117f1601283611b6d565b91506117fc82611ee6565b602082019050919050565b6000611814601f83611b6d565b915061181f82611f0f565b602082019050919050565b6000611837602a83611b6d565b915061184282611f38565b604082019050919050565b600061185a601983611b6d565b915061186582611f87565b602082019050919050565b61187981611d01565b82525050565b61189061188b82611d01565b611d6c565b82525050565b60006118a2828561170d565b6020820191506118b2828461187f565b6020820191508190509392505050565b60006020820190506118d760008301846116ef565b92915050565b60006040820190506118f260008301856116ef565b6118ff6020830184611870565b9392505050565b600060608201905061191b60008301866116ef565b6119286020830185611870565b818103604083015261193a8184611724565b9050949350505050565b600060808201905061195960008301876116ef565b6119666020830186611870565b611973604083018561175d565b6119806060830184611870565b95945050505050565b600060208201905061199e60008301846116fe565b92915050565b60006040820190506119b960008301856116fe565b6119c66020830184611870565b9392505050565b60006080820190506119e260008301876116fe565b6119ef6020830186611870565b6119fc60408301856116ef565b611a096060830184611870565b95945050505050565b6000602082019050611a27600083018461176c565b92915050565b60006020820190508181036000830152611a468161177b565b9050919050565b60006020820190508181036000830152611a668161179e565b9050919050565b60006020820190508181036000830152611a86816117c1565b9050919050565b60006020820190508181036000830152611aa6816117e4565b9050919050565b60006020820190508181036000830152611ac681611807565b9050919050565b60006020820190508181036000830152611ae68161182a565b9050919050565b60006020820190508181036000830152611b068161184d565b9050919050565b6000602082019050611b226000830184611870565b92915050565b6000604082019050611b3d6000830185611870565b611b4a6020830184611870565b9392505050565b600081519050919050565b600082825260208201905092915050565b600082825260208201905092915050565b6000611b8982611d01565b9150611b9483611d01565b9250827fffffffffffffffffffffffffffffffffffffffffffffffffffffffffffffffff03821115611bc957611bc8611da7565b5b828201905092915050565b6000611bdf82611d01565b9150611bea83611d01565b925082611bfa57611bf9611dd6565b5b828204905092915050565b6000611c1082611d01565b9150611c1b83611d01565b9250817fffffffffffffffffffffffffffffffffffffffffffffffffffffffffffffffff0483118215151615611c5457611c53611da7565b5b828202905092915050565b6000611c6a82611d01565b9150611c7583611d01565b925082821015611c8857611c87611da7565b5b828203905092915050565b6000611c9e82611ce1565b9050919050565b60008115159050919050565b6000819050919050565b6000819050611cc982611fb0565b919050565b6000819050611cdc82611fc4565b919050565b600073ffffffffffffffffffffffffffffffffffffffff82169050919050565b6000819050919050565b6000611d1682611cbb565b9050919050565b6000611d2882611cce565b9050919050565b60005b83811015611d4d578082015181840152602081019050611d32565b83811115611d5c576000848401525b50505050565b6000819050919050565b6000819050919050565b6000611d8182611d01565b9150611d8c83611d01565b925082611d9c57611d9b611dd6565b5b828206905092915050565b7f4e487b7100000000000000000000000000000000000000000000000000000000600052601160045260246000fd5b7f4e487b7100000000000000000000000000000000000000000000000000000000600052601260045260246000fd5b7f4e487b7100000000000000000000000000000000000000000000000000000000600052602160045260246000fd5b6000601f19601f8301169050919050565b7f4e6f7420656e6f756768204c494e4b202d2066696c6c20636f6e74726163742060008201527f7769746820666175636574000000000000000000000000000000000000000000602082015250565b7f426574206d7573742062652061626f7665206d696e696d756d00000000000000600082015250565b7f596f75206d7573742074686520746865206f776e657200000000000000000000600082015250565b7f556e61626c6520746f207472616e736665720000000000000000000000000000600082015250565b7f4f6e6c7920565246436f6f7264696e61746f722063616e2066756c66696c6c00600082015250565b7f4e6f7420656e6f756768206d61746963206c6971756964697479206f6e20746860008201527f6520636f6e747261637400000000000000000000000000000000000000000000602082015250565b7f426574206d7573742062652062656c6f77206d6178696d756d00000000000000600082015250565b60038110611fc157611fc0611e05565b5b50565b60028110611fd557611fd4611e05565b5b50565b611fe181611c93565b8114611fec57600080fd5b50565b611ff881611ca5565b811461200357600080fd5b50565b61200f81611cb1565b811461201a57600080fd5b50565b61202681611d01565b811461203157600080fd5b5056fea2646970667358221220fd0b1cca278f8c894d7e5fef21f83ab7d801a0be4def2d94b43974dace6cf95964736f6c63430008040033",
  "immutableReferences": {
    "596": [
      {
        "length": 32,
        "start": 1554
      },
      {
        "length": 32,
        "start": 1733
      },
      {
        "length": 32,
        "start": 2853
      },
      {
        "length": 32,
        "start": 2914
      },
      {
        "length": 32,
        "start": 3420
      },
      {
        "length": 32,
        "start": 4019
      }
    ],
    "598": [
      {
        "length": 32,
        "start": 3259
      },
      {
        "length": 32,
        "start": 4079
      }
    ]
  },
  "source": "// SPDX-License-Identifier: MIT\npragma solidity 0.8.4;\n\nimport \"./dependencies/VRFConsumerBase.sol\";\n\n/**\n  * Network: Kovan\n  * Chainlink VRF Coordinator address: 0xdD3782915140c8f3b190B5D67eAc6dc5760C46E9\n  * LINK token address:                0xa36085F69e2889c224210F603D836748e7dC0088\n  * Key Hash: 0x6c3699283bda56ad74f6b855546325b68d482e983852a7a82979cc4807b641f4\n  * Fee: 0.1\n  */\n/**\n  * Network: Mumbai\n  * Chainlink VRF Coordinator address: 0x8C7382F9D8f56b33781fE506E897a4F1e2d17255\n  * LINK token address:                0x326C977E6efc84E512bB9C30f76E30c160eD06FB\n  * Key Hash: 0x6e75b569a01ef56d18cab6a8e71e6600d6ce853834d4a5748b720d06f878b3a4\n  * Fee: 0.0001\n  */\n\ncontract DiceGame is VRFConsumerBase {\n  address owner;\n  uint256 public bet_percentage_fee = 1000;// 10.00%\n  uint256 public minimum_bet = 0;\n  uint256 public maximum_bet = 100 ether;\n\n  enum Status { Finished, WaitingForOracle }\n  enum Result { Pending, PlayerWon, PlayerLost }\n  struct Game {\n    address player;\n    uint256 bet_amount;\n    Result result;\n    uint256 selection;\n  }\n\n  event GameResult(\n    address indexed player,\n    Result indexed result,\n    uint256 bet_amount,\n    uint256 transfered_to_player\n  );\n\n  // Chainlink internal setup\n  bytes32 internal keyHash = 0x6c3699283bda56ad74f6b855546325b68d482e983852a7a82979cc4807b641f4;\n  uint256 internal fee = 0.1 * 10 ** 18;\n\n  // Random handlers\n  mapping(bytes32 => Game) public games;\n  mapping(address => Status) public player_status;\n  mapping(address => bytes32) public player_request_id;\n\n  constructor()\n  public\n  VRFConsumerBase(\n    0xdD3782915140c8f3b190B5D67eAc6dc5760C46E9 /* VRF Coordinator */,\n    0xa36085F69e2889c224210F603D836748e7dC0088 /* Link Mumbai Token Contract */)\n  {\n    owner = msg.sender;\n  }\n\n  function roll(uint256 userProvidedSeed, uint256 selection) public payable returns (bytes32 _requestId)\n  {\n    require(LINK.balanceOf(address(this)) > fee, \"Not enough LINK - fill contract with faucet\");\n    require(msg.value <= address(this).balance, \"Not enough matic liquidity on the contract\");\n    require(msg.value >= minimum_bet, \"Bet must be above minimum\");\n    require(msg.value <= maximum_bet, \"Bet must be below maximum\");\n\n    bytes32 requestId = requestRandomness(keyHash, fee, userProvidedSeed);\n\n    games[requestId].player = msg.sender;\n    games[requestId].bet_amount = msg.value;\n    games[requestId].selection = selection;\n    player_status[msg.sender] = Status.WaitingForOracle;\n    player_request_id[msg.sender] = requestId;\n\n    return requestId;\n  }\n\n  function getRandomNumber(uint256 userProvidedSeed) public returns (bytes32 requestId) {\n    require(LINK.balanceOf(address(this)) >= fee, \"Not enough LINK - fill contract with faucet\");\n    return requestRandomness(keyHash, fee, userProvidedSeed);\n  }\n\n  function fulfillRandomness(bytes32 requestId, uint256 randomness) internal override\n  {\n    address player = games[requestId].player;\n    uint256 transfered_to_player = 0;\n    \n    if(randomness%2 == games[requestId].selection)\n    {\n      games[requestId].result = Result.PlayerWon;\n    }else\n    {\n      games[requestId].result = Result.PlayerLost;\n    }\n\n    if(games[requestId].result == Result.PlayerWon)\n    {\n      transfered_to_player = games[requestId].bet_amount - games[requestId].bet_amount * bet_percentage_fee / 10000;\n      payable(player).transfer(\n        transfered_to_player\n      );\n    }\n    player_status[player] = Status.Finished;\n\n    emit GameResult(\n      player,\n      games[requestId].result,\n      games[requestId].bet_amount,\n      transfered_to_player\n    );\n  }\n\n  // Owner functions\n  modifier isOwner()\n  {\n    require(msg.sender == owner, \"You must the the owner\");\n    _;\n  }\n  \n  function retrieveFunds(uint256 amount) public isOwner()\n  {\n    payable(msg.sender).transfer(amount);\n  }\n\n  function setOwner(address new_owner) public isOwner()\n  {\n    owner = new_owner;\n  }\n\n  function setBetPercentageFee(uint256 percentage) public isOwner()\n  {\n    bet_percentage_fee = percentage;\n  }\n\n  function setMinimumBet(uint256 amount) public isOwner()\n  {\n    minimum_bet = amount;\n  }\n\n  function setMaximumBet(uint256 amount) public isOwner()\n  {\n    maximum_bet = amount;\n  }\n\n  function withdrawLink() external isOwner() {\n    require(LINK.transfer(msg.sender, LINK.balanceOf(address(this))), \"Unable to transfer\");\n  }\n\n  // Misc\n  fallback() external payable {}\n  receive() external payable {}\n  \n  function getLinkBalance() public view returns(uint256)\n  {\n    return LINK.balanceOf(address(this));\n  }\n}",
  "sourcePath": "/home/turupawn/Projects/Blockchain/Games/MaticDiceGame/contracts/TestgroundGame.sol",
  "compiler": {
    "name": "solc",
    "version": "0.8.4+commit.c7e474f2.Emscripten.clang"
  },
  "schemaVersion": "3.3.4",
  "updatedAt": "2021-06-08T02:36:30.613Z",
  "networkType": "ethereum",
  "devdoc": {
    "kind": "dev",
    "methods": {},
    "version": 1
  },
  "userdoc": {
    "kind": "user",
    "methods": {},
    "notice": "Network: Mumbai Chainlink VRF Coordinator address: 0x8C7382F9D8f56b33781fE506E897a4F1e2d17255 LINK token address:                0x326C977E6efc84E512bB9C30f76E30c160eD06FB Key Hash: 0x6e75b569a01ef56d18cab6a8e71e6600d6ce853834d4a5748b720d06f878b3a4 Fee: 0.0001",
    "version": 1
  }
}