{
  "contractName": "DiceGame",
  "abi": [
    {
      "inputs": [],
      "stateMutability": "nonpayable",
      "type": "constructor"
    },
    {
      "anonymous": false,
      "inputs": [
        {
          "indexed": true,
          "internalType": "address",
          "name": "player",
          "type": "address"
        },
        {
          "indexed": true,
          "internalType": "enum DiceGame.Result",
          "name": "result",
          "type": "uint8"
        },
        {
          "indexed": false,
          "internalType": "uint256",
          "name": "bet_amount",
          "type": "uint256"
        },
        {
          "indexed": false,
          "internalType": "uint256",
          "name": "transfered_to_player",
          "type": "uint256"
        }
      ],
      "name": "GameResult",
      "type": "event"
    },
    {
      "stateMutability": "payable",
      "type": "fallback",
      "payable": true
    },
    {
      "inputs": [],
      "name": "bet_percentage_fee",
      "outputs": [
        {
          "internalType": "uint256",
          "name": "",
          "type": "uint256"
        }
      ],
      "stateMutability": "view",
      "type": "function",
      "constant": true
    },
    {
      "inputs": [
        {
          "internalType": "bytes32",
          "name": "",
          "type": "bytes32"
        }
      ],
      "name": "games",
      "outputs": [
        {
          "internalType": "address",
          "name": "player",
          "type": "address"
        },
        {
          "internalType": "uint256",
          "name": "bet_amount",
          "type": "uint256"
        },
        {
          "internalType": "enum DiceGame.Result",
          "name": "result",
          "type": "uint8"
        },
        {
          "internalType": "uint256",
          "name": "selection",
          "type": "uint256"
        }
      ],
      "stateMutability": "view",
      "type": "function",
      "constant": true
    },
    {
      "inputs": [],
      "name": "maximum_bet",
      "outputs": [
        {
          "internalType": "uint256",
          "name": "",
          "type": "uint256"
        }
      ],
      "stateMutability": "view",
      "type": "function",
      "constant": true
    },
    {
      "inputs": [],
      "name": "minimum_bet",
      "outputs": [
        {
          "internalType": "uint256",
          "name": "",
          "type": "uint256"
        }
      ],
      "stateMutability": "view",
      "type": "function",
      "constant": true
    },
    {
      "inputs": [
        {
          "internalType": "address",
          "name": "",
          "type": "address"
        }
      ],
      "name": "player_request_id",
      "outputs": [
        {
          "internalType": "bytes32",
          "name": "",
          "type": "bytes32"
        }
      ],
      "stateMutability": "view",
      "type": "function",
      "constant": true
    },
    {
      "inputs": [
        {
          "internalType": "address",
          "name": "",
          "type": "address"
        }
      ],
      "name": "player_status",
      "outputs": [
        {
          "internalType": "enum DiceGame.Status",
          "name": "",
          "type": "uint8"
        }
      ],
      "stateMutability": "view",
      "type": "function",
      "constant": true
    },
    {
      "inputs": [
        {
          "internalType": "bytes32",
          "name": "requestId",
          "type": "bytes32"
        },
        {
          "internalType": "uint256",
          "name": "randomness",
          "type": "uint256"
        }
      ],
      "name": "rawFulfillRandomness",
      "outputs": [],
      "stateMutability": "nonpayable",
      "type": "function"
    },
    {
      "stateMutability": "payable",
      "type": "receive",
      "payable": true
    },
    {
      "inputs": [
        {
          "internalType": "uint256",
          "name": "userProvidedSeed",
          "type": "uint256"
        },
        {
          "internalType": "uint256",
          "name": "selection",
          "type": "uint256"
        }
      ],
      "name": "roll",
      "outputs": [
        {
          "internalType": "bytes32",
          "name": "_requestId",
          "type": "bytes32"
        }
      ],
      "stateMutability": "payable",
      "type": "function",
      "payable": true
    },
    {
      "inputs": [
        {
          "internalType": "uint256",
          "name": "amount",
          "type": "uint256"
        }
      ],
      "name": "retrieveFunds",
      "outputs": [],
      "stateMutability": "nonpayable",
      "type": "function"
    },
    {
      "inputs": [
        {
          "internalType": "address",
          "name": "new_owner",
          "type": "address"
        }
      ],
      "name": "setOwner",
      "outputs": [],
      "stateMutability": "nonpayable",
      "type": "function"
    },
    {
      "inputs": [
        {
          "internalType": "uint256",
          "name": "amount",
          "type": "uint256"
        }
      ],
      "name": "setMinimumBet",
      "outputs": [],
      "stateMutability": "nonpayable",
      "type": "function"
    },
    {
      "inputs": [
        {
          "internalType": "uint256",
          "name": "amount",
          "type": "uint256"
        }
      ],
      "name": "setMaximumBet",
      "outputs": [],
      "stateMutability": "nonpayable",
      "type": "function"
    },
    {
      "inputs": [],
      "name": "getLinkBalance",
      "outputs": [
        {
          "internalType": "uint256",
          "name": "",
          "type": "uint256"
        }
      ],
      "stateMutability": "view",
      "type": "function",
      "constant": true
    }
  ],
  "bytecode": "0x60c0604052600a600255600060035568056bc75e2d631000006004557f6e75b569a01ef56d18cab6a8e71e6600d6ce853834d4a5748b720d06f878b3a460001b600555655af3107a400060065534801561005857600080fd5b50738c7382f9d8f56b33781fe506e897a4f1e2d1725573326c977e6efc84e512bb9c30f76e30c160ed06fb8173ffffffffffffffffffffffffffffffffffffffff1660a08173ffffffffffffffffffffffffffffffffffffffff1660601b815250508073ffffffffffffffffffffffffffffffffffffffff1660808173ffffffffffffffffffffffffffffffffffffffff1660601b81525050505033600160006101000a81548173ffffffffffffffffffffffffffffffffffffffff021916908373ffffffffffffffffffffffffffffffffffffffff16021790555060805160601c60a05160601c611b0d6101746000396000818161094d0152610b7c0152600081816104ca0152818161057d0152610b400152611b0d6000f3fe6080604052600436106100c65760003560e01c8063845712351161007f578063b6071cc611610059578063b6071cc614610261578063bc97ee171461029e578063f579f882146102c9578063fc41491e14610309576100cd565b806384571235146101e45780638772ae3c1461020f57806394985ddd14610238576100cd565b806313af4035146100cf57806320820967146100f857806320ae20591461012357806338c6d3441461014c57806350c5f975146101895780636ec9b897146101b4576100cd565b366100cd57005b005b3480156100db57600080fd5b506100f660048036038101906100f19190611116565b610332565b005b34801561010457600080fd5b5061010d610406565b60405161011a919061160d565b60405180910390f35b34801561012f57600080fd5b5061014a600480360381019061014591906111cd565b61040c565b005b34801561015857600080fd5b50610173600480360381019061016e9190611116565b6104a6565b6040516101809190611532565b60405180910390f35b34801561019557600080fd5b5061019e6104c6565b6040516101ab919061160d565b60405180910390f35b6101ce60048036038101906101c9919061121f565b610576565b6040516101db91906114a9565b60405180910390f35b3480156101f057600080fd5b506101f96108ab565b604051610206919061160d565b60405180910390f35b34801561021b57600080fd5b50610236600480360381019061023191906111cd565b6108b1565b005b34801561024457600080fd5b5061025f600480360381019061025a9190611191565b61094b565b005b34801561026d57600080fd5b5061028860048036038101906102839190611116565b6109e7565b60405161029591906114a9565b60405180910390f35b3480156102aa57600080fd5b506102b36109ff565b6040516102c0919061160d565b60405180910390f35b3480156102d557600080fd5b506102f060048036038101906102eb9190611168565b610a05565b6040516103009493929190611464565b60405180910390f35b34801561031557600080fd5b50610330600480360381019061032b91906111cd565b610a62565b005b600160009054906101000a900473ffffffffffffffffffffffffffffffffffffffff1673ffffffffffffffffffffffffffffffffffffffff163373ffffffffffffffffffffffffffffffffffffffff16146103c2576040517f08c379a00000000000000000000000000000000000000000000000000000000081526004016103b99061158d565b60405180910390fd5b80600160006101000a81548173ffffffffffffffffffffffffffffffffffffffff021916908373ffffffffffffffffffffffffffffffffffffffff16021790555050565b60025481565b600160009054906101000a900473ffffffffffffffffffffffffffffffffffffffff1673ffffffffffffffffffffffffffffffffffffffff163373ffffffffffffffffffffffffffffffffffffffff161461049c576040517f08c379a00000000000000000000000000000000000000000000000000000000081526004016104939061158d565b60405180910390fd5b8060048190555050565b60086020528060005260406000206000915054906101000a900460ff1681565b60007f000000000000000000000000000000000000000000000000000000000000000073ffffffffffffffffffffffffffffffffffffffff166370a08231306040518263ffffffff1660e01b8152600401610521919061140b565b60206040518083038186803b15801561053957600080fd5b505afa15801561054d573d6000803e3d6000fd5b505050506040513d601f19601f8201168201806040525081019061057191906111f6565b905090565b60006006547f000000000000000000000000000000000000000000000000000000000000000073ffffffffffffffffffffffffffffffffffffffff166370a08231306040518263ffffffff1660e01b81526004016105d4919061140b565b60206040518083038186803b1580156105ec57600080fd5b505afa158015610600573d6000803e3d6000fd5b505050506040513d601f19601f8201168201806040525081019061062491906111f6565b11610664576040517f08c379a000000000000000000000000000000000000000000000000000000000815260040161065b9061154d565b60405180910390fd5b473411156106a7576040517f08c379a000000000000000000000000000000000000000000000000000000000815260040161069e906115cd565b60405180910390fd5b6003543411156106ec576040517f08c379a00000000000000000000000000000000000000000000000000000000081526004016106e39061156d565b60405180910390fd5b600454341015610731576040517f08c379a0000000000000000000000000000000000000000000000000000000008152600401610728906115ed565b60405180910390fd5b600061074260055460065486610b3c565b9050336007600083815260200190815260200160002060000160006101000a81548173ffffffffffffffffffffffffffffffffffffffff021916908373ffffffffffffffffffffffffffffffffffffffff1602179055503460076000838152602001908152602001600020600101819055508260076000838152602001908152602001600020600301819055506001600860003373ffffffffffffffffffffffffffffffffffffffff1673ffffffffffffffffffffffffffffffffffffffff16815260200190815260200160002060006101000a81548160ff02191690836001811115610858577f4e487b7100000000000000000000000000000000000000000000000000000000600052602160045260246000fd5b021790555080600960003373ffffffffffffffffffffffffffffffffffffffff1673ffffffffffffffffffffffffffffffffffffffff168152602001908152602001600020819055508091505092915050565b60035481565b600160009054906101000a900473ffffffffffffffffffffffffffffffffffffffff1673ffffffffffffffffffffffffffffffffffffffff163373ffffffffffffffffffffffffffffffffffffffff1614610941576040517f08c379a00000000000000000000000000000000000000000000000000000000081526004016109389061158d565b60405180910390fd5b8060038190555050565b7f000000000000000000000000000000000000000000000000000000000000000073ffffffffffffffffffffffffffffffffffffffff163373ffffffffffffffffffffffffffffffffffffffff16146109d9576040517f08c379a00000000000000000000000000000000000000000000000000000000081526004016109d0906115ad565b60405180910390fd5b6109e38282610c9a565b5050565b60096020528060005260406000206000915090505481565b60045481565b60076020528060005260406000206000915090508060000160009054906101000a900473ffffffffffffffffffffffffffffffffffffffff16908060010154908060020160009054906101000a900460ff16908060030154905084565b600160009054906101000a900473ffffffffffffffffffffffffffffffffffffffff1673ffffffffffffffffffffffffffffffffffffffff163373ffffffffffffffffffffffffffffffffffffffff1614610af2576040517f08c379a0000000000000000000000000000000000000000000000000000000008152600401610ae99061158d565b60405180910390fd5b3373ffffffffffffffffffffffffffffffffffffffff166108fc829081150290604051600060405180830381858888f19350505050158015610b38573d6000803e3d6000fd5b5050565b60007f000000000000000000000000000000000000000000000000000000000000000073ffffffffffffffffffffffffffffffffffffffff16634000aea07f0000000000000000000000000000000000000000000000000000000000000000858786604051602001610baf9291906114c4565b6040516020818303038152906040526040518463ffffffff1660e01b8152600401610bdc93929190611426565b602060405180830381600087803b158015610bf657600080fd5b505af1158015610c0a573d6000803e3d6000fd5b505050506040513d601f19601f82011682018060405250810190610c2e919061113f565b506000610c4f8584306000808a81526020019081526020016000205461103e565b9050600160008087815260200190815260200160002054610c70919061167e565b60008087815260200190815260200160002081905550610c90858261107a565b9150509392505050565b60006007600084815260200190815260200160002060000160009054906101000a900473ffffffffffffffffffffffffffffffffffffffff16905060006007600085815260200190815260200160002060030154600284610cfb9190611842565b1415610d6b5760016007600086815260200190815260200160002060020160006101000a81548160ff02191690836002811115610d61577f4e487b7100000000000000000000000000000000000000000000000000000000600052602160045260246000fd5b0217905550610dd1565b60016007600086815260200190815260200160002060020160006101000a81548160ff02191690836002811115610dcb577f4e487b7100000000000000000000000000000000000000000000000000000000600052602160045260246000fd5b02179055505b60016002811115610e0b577f4e487b7100000000000000000000000000000000000000000000000000000000600052602160045260246000fd5b6007600086815260200190815260200160002060020160009054906101000a900460ff166002811115610e67577f4e487b7100000000000000000000000000000000000000000000000000000000600052602160045260246000fd5b1415610ee8576127106002546007600087815260200190815260200160002060010154610e949190611705565b610e9e91906116d4565b90508173ffffffffffffffffffffffffffffffffffffffff166108fc829081150290604051600060405180830381858888f19350505050158015610ee6573d6000803e3d6000fd5b505b6000600860008473ffffffffffffffffffffffffffffffffffffffff1673ffffffffffffffffffffffffffffffffffffffff16815260200190815260200160002060006101000a81548160ff02191690836001811115610f71577f4e487b7100000000000000000000000000000000000000000000000000000000600052602160045260246000fd5b02179055506007600085815260200190815260200160002060020160009054906101000a900460ff166002811115610fd2577f4e487b7100000000000000000000000000000000000000000000000000000000600052602160045260246000fd5b8273ffffffffffffffffffffffffffffffffffffffff167fbe47df9f3d33d4569fa7aa0c052843bcca36cb2e6ca8d375c6884ccbb2910174600760008881526020019081526020016000206001015484604051611030929190611628565b60405180910390a350505050565b60008484848460405160200161105794939291906114ed565b6040516020818303038152906040528051906020012060001c9050949350505050565b6000828260405160200161108f9291906113df565b60405160208183030381529060405280519060200120905092915050565b6000813590506110bc81611a7b565b92915050565b6000815190506110d181611a92565b92915050565b6000813590506110e681611aa9565b92915050565b6000813590506110fb81611ac0565b92915050565b60008151905061111081611ac0565b92915050565b60006020828403121561112857600080fd5b6000611136848285016110ad565b91505092915050565b60006020828403121561115157600080fd5b600061115f848285016110c2565b91505092915050565b60006020828403121561117a57600080fd5b6000611188848285016110d7565b91505092915050565b600080604083850312156111a457600080fd5b60006111b2858286016110d7565b92505060206111c3858286016110ec565b9150509250929050565b6000602082840312156111df57600080fd5b60006111ed848285016110ec565b91505092915050565b60006020828403121561120857600080fd5b600061121684828501611101565b91505092915050565b6000806040838503121561123257600080fd5b6000611240858286016110ec565b9250506020611251858286016110ec565b9150509250929050565b6112648161175f565b82525050565b6112738161177d565b82525050565b61128a6112858261177d565b61182e565b82525050565b600061129b82611651565b6112a5818561165c565b93506112b58185602086016117fb565b6112be81611900565b840191505092915050565b6112d2816117d7565b82525050565b6112e1816117e9565b82525050565b60006112f4602b8361166d565b91506112ff82611911565b604082019050919050565b600061131760198361166d565b915061132282611960565b602082019050919050565b600061133a60168361166d565b915061134582611989565b602082019050919050565b600061135d601f8361166d565b9150611368826119b2565b602082019050919050565b6000611380602a8361166d565b915061138b826119db565b604082019050919050565b60006113a360198361166d565b91506113ae82611a2a565b602082019050919050565b6113c2816117cd565b82525050565b6113d96113d4826117cd565b611838565b82525050565b60006113eb8285611279565b6020820191506113fb82846113c8565b6020820191508190509392505050565b6000602082019050611420600083018461125b565b92915050565b600060608201905061143b600083018661125b565b61144860208301856113b9565b818103604083015261145a8184611290565b9050949350505050565b6000608082019050611479600083018761125b565b61148660208301866113b9565b61149360408301856112c9565b6114a060608301846113b9565b95945050505050565b60006020820190506114be600083018461126a565b92915050565b60006040820190506114d9600083018561126a565b6114e660208301846113b9565b9392505050565b6000608082019050611502600083018761126a565b61150f60208301866113b9565b61151c604083018561125b565b61152960608301846113b9565b95945050505050565b600060208201905061154760008301846112d8565b92915050565b60006020820190508181036000830152611566816112e7565b9050919050565b600060208201905081810360008301526115868161130a565b9050919050565b600060208201905081810360008301526115a68161132d565b9050919050565b600060208201905081810360008301526115c681611350565b9050919050565b600060208201905081810360008301526115e681611373565b9050919050565b6000602082019050818103600083015261160681611396565b9050919050565b600060208201905061162260008301846113b9565b92915050565b600060408201905061163d60008301856113b9565b61164a60208301846113b9565b9392505050565b600081519050919050565b600082825260208201905092915050565b600082825260208201905092915050565b6000611689826117cd565b9150611694836117cd565b9250827fffffffffffffffffffffffffffffffffffffffffffffffffffffffffffffffff038211156116c9576116c8611873565b5b828201905092915050565b60006116df826117cd565b91506116ea836117cd565b9250826116fa576116f96118a2565b5b828204905092915050565b6000611710826117cd565b915061171b836117cd565b9250817fffffffffffffffffffffffffffffffffffffffffffffffffffffffffffffffff048311821515161561175457611753611873565b5b828202905092915050565b600061176a826117ad565b9050919050565b60008115159050919050565b6000819050919050565b600081905061179582611a53565b919050565b60008190506117a882611a67565b919050565b600073ffffffffffffffffffffffffffffffffffffffff82169050919050565b6000819050919050565b60006117e282611787565b9050919050565b60006117f48261179a565b9050919050565b60005b838110156118195780820151818401526020810190506117fe565b83811115611828576000848401525b50505050565b6000819050919050565b6000819050919050565b600061184d826117cd565b9150611858836117cd565b925082611868576118676118a2565b5b828206905092915050565b7f4e487b7100000000000000000000000000000000000000000000000000000000600052601160045260246000fd5b7f4e487b7100000000000000000000000000000000000000000000000000000000600052601260045260246000fd5b7f4e487b7100000000000000000000000000000000000000000000000000000000600052602160045260246000fd5b6000601f19601f8301169050919050565b7f4e6f7420656e6f756768204c494e4b202d2066696c6c20636f6e74726163742060008201527f7769746820666175636574000000000000000000000000000000000000000000602082015250565b7f426574206d7573742062652061626f7665206d696e696d756d00000000000000600082015250565b7f596f75206d7573742074686520746865206f776e657200000000000000000000600082015250565b7f4f6e6c7920565246436f6f7264696e61746f722063616e2066756c66696c6c00600082015250565b7f4e6f7420656e6f756768206d61746963206c6971756964697479206f6e20746860008201527f6520636f6e747261637400000000000000000000000000000000000000000000602082015250565b7f426574206d7573742062652062656c6f77206d6178696d756d00000000000000600082015250565b60038110611a6457611a636118d1565b5b50565b60028110611a7857611a776118d1565b5b50565b611a848161175f565b8114611a8f57600080fd5b50565b611a9b81611771565b8114611aa657600080fd5b50565b611ab28161177d565b8114611abd57600080fd5b50565b611ac9816117cd565b8114611ad457600080fd5b5056fea26469706673582212203d01ba5e1933c896a0985a67db51de12e4095334c0ea8dc555d573cfa42dba8d64736f6c63430008040033",
  "immutableReferences": {
    "529": [
      {
        "length": 32,
        "start": 1226
      },
      {
        "length": 32,
        "start": 1405
      },
      {
        "length": 32,
        "start": 2880
      }
    ],
    "531": [
      {
        "length": 32,
        "start": 2381
      },
      {
        "length": 32,
        "start": 2940
      }
    ]
  },
  "source": "// SPDX-License-Identifier: MIT\npragma solidity 0.8.4;\n\nimport \"./dependencies/VRFConsumerBase.sol\";\n\ncontract DiceGame is VRFConsumerBase {\n  address owner;\n  uint256 public bet_percentage_fee = 10;\n  uint256 public minimum_bet = 0;\n  uint256 public maximum_bet = 100 ether;\n\n  enum Status { Finished, WaitingForOracle }\n  enum Result { Pending, PlayerWon, PlayerLost }\n  struct Game {\n    address player;\n    uint256 bet_amount;\n    Result result;\n    uint256 selection;\n  }\n\n  event GameResult(\n    address indexed player,\n    Result indexed result,\n    uint256 bet_amount,\n    uint256 transfered_to_player\n  );\n\n  // Chainlink internal setup\n  bytes32 internal keyHash = 0x6e75b569a01ef56d18cab6a8e71e6600d6ce853834d4a5748b720d06f878b3a4;\n  uint256 internal fee = 0.0001 * 10 ** 18;\n\n  // Random handlers\n  mapping(bytes32 => Game) public games;\n  mapping(address => Status) public player_status;\n  mapping(address => bytes32) public player_request_id;\n\n  constructor()\n  public\n  VRFConsumerBase(\n    0x8C7382F9D8f56b33781fE506E897a4F1e2d17255 /* VRF Coordinator */,\n    0x326C977E6efc84E512bB9C30f76E30c160eD06FB /* Link Mumbai Token Contract */)\n  {\n    owner = msg.sender;\n  }\n\n  function roll(uint256 userProvidedSeed, uint256 selection) public payable returns (bytes32 _requestId)\n  {\n    require(LINK.balanceOf(address(this)) > fee, \"Not enough LINK - fill contract with faucet\");\n    require(msg.value <= address(this).balance, \"Not enough matic liquidity on the contract\");\n    require(msg.value <= minimum_bet, \"Bet must be above minimum\");\n    require(msg.value >= maximum_bet, \"Bet must be below maximum\");\n\n    bytes32 requestId = requestRandomness(keyHash, fee, userProvidedSeed);\n\n    games[requestId].player = msg.sender;\n    games[requestId].bet_amount = msg.value;\n    games[requestId].selection = selection;\n    player_status[msg.sender] = Status.WaitingForOracle;\n    player_request_id[msg.sender] = requestId;\n\n    return requestId;\n  }\n\n  function fulfillRandomness(bytes32 requestId, uint256 randomnes) internal override\n  {\n    address player = games[requestId].player;\n    uint256 transfered_to_player = 0;\n    \n    if(randomnes%2 == games[requestId].selection)\n    {\n      games[requestId].result = Result.PlayerWon;\n    }else\n    {\n      games[requestId].result = Result.PlayerWon;\n    }\n\n    if(games[requestId].result == Result.PlayerWon)\n    {\n      transfered_to_player = games[requestId].bet_amount * bet_percentage_fee / 10000;\n      payable(player).transfer(\n        transfered_to_player\n      );\n    }\n    player_status[player] = Status.Finished;\n\n    emit GameResult(\n      player,\n      games[requestId].result,\n      games[requestId].bet_amount,\n      transfered_to_player\n    );\n  }\n\n  // Owner functions\n  modifier isOwner()\n  {\n    require(msg.sender == owner, \"You must the the owner\");\n    _;\n  }\n  \n  function retrieveFunds(uint256 amount) public isOwner()\n  {\n    payable(msg.sender).transfer(amount);\n  }\n\n  function setOwner(address new_owner) public isOwner()\n  {\n    owner = new_owner;\n  }\n\n  function setMinimumBet(uint256 amount) public isOwner()\n  {\n    minimum_bet = amount;\n  }\n\n  function setMaximumBet(uint256 amount) public isOwner()\n  {\n    maximum_bet = amount;\n  }\n\n  // Misc\n  fallback() external payable {}\n  receive() external payable {}\n  \n  function getLinkBalance() public view returns(uint256)\n  {\n    return LINK.balanceOf(address(this));\n  }\n}",
  "sourcePath": "/home/turupawn/Projects/Blockchain/Games/MaticDiceGame/contracts/TestgroundGame.sol",
  "compiler": {
    "name": "solc",
    "version": "0.8.4+commit.c7e474f2.Emscripten.clang"
  },
  "schemaVersion": "3.3.4",
  "updatedAt": "2021-06-06T19:23:23.288Z",
  "networkType": "ethereum",
  "devdoc": {
    "kind": "dev",
    "methods": {},
    "version": 1
  },
  "userdoc": {
    "kind": "user",
    "methods": {},
    "version": 1
  }
}