{
  "contractName": "DiceGame",
  "abi": [
    {
      "inputs": [],
      "stateMutability": "nonpayable",
      "type": "constructor"
    },
    {
      "anonymous": false,
      "inputs": [
        {
          "indexed": true,
          "internalType": "address",
          "name": "player",
          "type": "address"
        },
        {
          "indexed": true,
          "internalType": "enum DiceGame.Result",
          "name": "result",
          "type": "uint8"
        },
        {
          "indexed": false,
          "internalType": "uint256",
          "name": "bet_amount",
          "type": "uint256"
        },
        {
          "indexed": false,
          "internalType": "uint256",
          "name": "transfered_to_player",
          "type": "uint256"
        }
      ],
      "name": "GameResult",
      "type": "event"
    },
    {
      "stateMutability": "payable",
      "type": "fallback",
      "payable": true
    },
    {
      "inputs": [],
      "name": "bet_percentage_fee",
      "outputs": [
        {
          "internalType": "uint256",
          "name": "",
          "type": "uint256"
        }
      ],
      "stateMutability": "view",
      "type": "function",
      "constant": true
    },
    {
      "inputs": [
        {
          "internalType": "bytes32",
          "name": "",
          "type": "bytes32"
        }
      ],
      "name": "games",
      "outputs": [
        {
          "internalType": "address",
          "name": "player",
          "type": "address"
        },
        {
          "internalType": "uint256",
          "name": "bet_amount",
          "type": "uint256"
        },
        {
          "internalType": "enum DiceGame.Result",
          "name": "result",
          "type": "uint8"
        },
        {
          "internalType": "uint256",
          "name": "selection",
          "type": "uint256"
        }
      ],
      "stateMutability": "view",
      "type": "function",
      "constant": true
    },
    {
      "inputs": [],
      "name": "hola",
      "outputs": [
        {
          "internalType": "string",
          "name": "",
          "type": "string"
        }
      ],
      "stateMutability": "view",
      "type": "function",
      "constant": true
    },
    {
      "inputs": [],
      "name": "maximum_bet",
      "outputs": [
        {
          "internalType": "uint256",
          "name": "",
          "type": "uint256"
        }
      ],
      "stateMutability": "view",
      "type": "function",
      "constant": true
    },
    {
      "inputs": [],
      "name": "minimum_bet",
      "outputs": [
        {
          "internalType": "uint256",
          "name": "",
          "type": "uint256"
        }
      ],
      "stateMutability": "view",
      "type": "function",
      "constant": true
    },
    {
      "inputs": [
        {
          "internalType": "address",
          "name": "",
          "type": "address"
        }
      ],
      "name": "player_request_id",
      "outputs": [
        {
          "internalType": "bytes32",
          "name": "",
          "type": "bytes32"
        }
      ],
      "stateMutability": "view",
      "type": "function",
      "constant": true
    },
    {
      "inputs": [
        {
          "internalType": "address",
          "name": "",
          "type": "address"
        }
      ],
      "name": "player_status",
      "outputs": [
        {
          "internalType": "enum DiceGame.Status",
          "name": "",
          "type": "uint8"
        }
      ],
      "stateMutability": "view",
      "type": "function",
      "constant": true
    },
    {
      "inputs": [
        {
          "internalType": "bytes32",
          "name": "requestId",
          "type": "bytes32"
        },
        {
          "internalType": "uint256",
          "name": "randomness",
          "type": "uint256"
        }
      ],
      "name": "rawFulfillRandomness",
      "outputs": [],
      "stateMutability": "nonpayable",
      "type": "function"
    },
    {
      "stateMutability": "payable",
      "type": "receive",
      "payable": true
    },
    {
      "inputs": [
        {
          "internalType": "uint256",
          "name": "userProvidedSeed",
          "type": "uint256"
        },
        {
          "internalType": "uint256",
          "name": "selection",
          "type": "uint256"
        }
      ],
      "name": "roll",
      "outputs": [
        {
          "internalType": "bytes32",
          "name": "_requestId",
          "type": "bytes32"
        }
      ],
      "stateMutability": "payable",
      "type": "function",
      "payable": true
    },
    {
      "inputs": [
        {
          "internalType": "uint256",
          "name": "amount",
          "type": "uint256"
        }
      ],
      "name": "retrieveFunds",
      "outputs": [],
      "stateMutability": "nonpayable",
      "type": "function"
    },
    {
      "inputs": [
        {
          "internalType": "address",
          "name": "new_owner",
          "type": "address"
        }
      ],
      "name": "setOwner",
      "outputs": [],
      "stateMutability": "nonpayable",
      "type": "function"
    },
    {
      "inputs": [
        {
          "internalType": "uint256",
          "name": "amount",
          "type": "uint256"
        }
      ],
      "name": "setMinimumBet",
      "outputs": [],
      "stateMutability": "nonpayable",
      "type": "function"
    },
    {
      "inputs": [
        {
          "internalType": "uint256",
          "name": "amount",
          "type": "uint256"
        }
      ],
      "name": "setMaximumBet",
      "outputs": [],
      "stateMutability": "nonpayable",
      "type": "function"
    },
    {
      "inputs": [],
      "name": "getLinkBalance",
      "outputs": [
        {
          "internalType": "uint256",
          "name": "",
          "type": "uint256"
        }
      ],
      "stateMutability": "view",
      "type": "function",
      "constant": true
    }
  ],
  "bytecode": "0x60c0604052600a600255600060035568056bc75e2d631000006004556040518060400160405280600181526020017f6100000000000000000000000000000000000000000000000000000000000000815250600590805190602001906200006892919062000189565b507f6e75b569a01ef56d18cab6a8e71e6600d6ce853834d4a5748b720d06f878b3a460001b600655655af3107a4000600755348015620000a757600080fd5b50738c7382f9d8f56b33781fe506e897a4f1e2d1725573326c977e6efc84e512bb9c30f76e30c160ed06fb8173ffffffffffffffffffffffffffffffffffffffff1660a08173ffffffffffffffffffffffffffffffffffffffff1660601b815250508073ffffffffffffffffffffffffffffffffffffffff1660808173ffffffffffffffffffffffffffffffffffffffff1660601b81525050505033600160006101000a81548173ffffffffffffffffffffffffffffffffffffffff021916908373ffffffffffffffffffffffffffffffffffffffff1602179055506200029e565b828054620001979062000239565b90600052602060002090601f016020900481019282620001bb576000855562000207565b82601f10620001d657805160ff191683800117855562000207565b8280016001018555821562000207579182015b8281111562000206578251825591602001919060010190620001e9565b5b5090506200021691906200021a565b5090565b5b80821115620002355760008160009055506001016200021b565b5090565b600060028204905060018216806200025257607f821691505b602082108114156200026957620002686200026f565b5b50919050565b7f4e487b7100000000000000000000000000000000000000000000000000000000600052602260045260246000fd5b60805160601c60a05160601c61192f620002df600039600081816109df0152610c9c015260008181610510015281816105c30152610c60015261192f6000f3fe6080604052600436106100e15760003560e01c80638772ae3c1161007f578063bc97ee1711610059578063bc97ee17146102b9578063cb7acdd9146102e4578063f579f8821461030f578063fc41491e1461034f576100e8565b80638772ae3c1461022a57806394985ddd14610253578063b6071cc61461027c576100e8565b806338c6d344116100bb57806338c6d3441461016757806350c5f975146101a45780636ec9b897146101cf57806384571235146101ff576100e8565b806313af4035146100ea578063208209671461011357806320ae20591461013e576100e8565b366100e857005b005b3480156100f657600080fd5b50610111600480360381019061010c9190610f85565b610378565b005b34801561011f57600080fd5b5061012861044c565b60405161013591906114d7565b60405180910390f35b34801561014a57600080fd5b506101656004803603810190610160919061103c565b610452565b005b34801561017357600080fd5b5061018e60048036038101906101899190610f85565b6104ec565b60405161019b91906113da565b60405180910390f35b3480156101b057600080fd5b506101b961050c565b6040516101c691906114d7565b60405180910390f35b6101e960048036038101906101e4919061108e565b6105bc565b6040516101f69190611351565b60405180910390f35b34801561020b57600080fd5b5061021461093d565b60405161022191906114d7565b60405180910390f35b34801561023657600080fd5b50610251600480360381019061024c919061103c565b610943565b005b34801561025f57600080fd5b5061027a60048036038101906102759190611000565b6109dd565b005b34801561028857600080fd5b506102a3600480360381019061029e9190610f85565b610a79565b6040516102b09190611351565b60405180910390f35b3480156102c557600080fd5b506102ce610a91565b6040516102db91906114d7565b60405180910390f35b3480156102f057600080fd5b506102f9610a97565b60405161030691906113f5565b60405180910390f35b34801561031b57600080fd5b5061033660048036038101906103319190610fd7565b610b25565b604051610346949392919061130c565b60405180910390f35b34801561035b57600080fd5b506103766004803603810190610371919061103c565b610b82565b005b600160009054906101000a900473ffffffffffffffffffffffffffffffffffffffff1673ffffffffffffffffffffffffffffffffffffffff163373ffffffffffffffffffffffffffffffffffffffff1614610408576040517f08c379a00000000000000000000000000000000000000000000000000000000081526004016103ff90611457565b60405180910390fd5b80600160006101000a81548173ffffffffffffffffffffffffffffffffffffffff021916908373ffffffffffffffffffffffffffffffffffffffff16021790555050565b60025481565b600160009054906101000a900473ffffffffffffffffffffffffffffffffffffffff1673ffffffffffffffffffffffffffffffffffffffff163373ffffffffffffffffffffffffffffffffffffffff16146104e2576040517f08c379a00000000000000000000000000000000000000000000000000000000081526004016104d990611457565b60405180910390fd5b8060048190555050565b60096020528060005260406000206000915054906101000a900460ff1681565b60007f000000000000000000000000000000000000000000000000000000000000000073ffffffffffffffffffffffffffffffffffffffff166370a08231306040518263ffffffff1660e01b815260040161056791906112b3565b60206040518083038186803b15801561057f57600080fd5b505afa158015610593573d6000803e3d6000fd5b505050506040513d601f19601f820116820180604052508101906105b79190611065565b905090565b60006007547f000000000000000000000000000000000000000000000000000000000000000073ffffffffffffffffffffffffffffffffffffffff166370a08231306040518263ffffffff1660e01b815260040161061a91906112b3565b60206040518083038186803b15801561063257600080fd5b505afa158015610646573d6000803e3d6000fd5b505050506040513d601f19601f8201168201806040525081019061066a9190611065565b116106aa576040517f08c379a00000000000000000000000000000000000000000000000000000000081526004016106a190611417565b60405180910390fd5b473411156106ed576040517f08c379a00000000000000000000000000000000000000000000000000000000081526004016106e490611497565b60405180910390fd5b600354341015610732576040517f08c379a000000000000000000000000000000000000000000000000000000000815260040161072990611437565b60405180910390fd5b600454341115610777576040517f08c379a000000000000000000000000000000000000000000000000000000000815260040161076e906114b7565b60405180910390fd5b600061078860065460075486610c5c565b9050336008600083815260200190815260200160002060000160006101000a81548173ffffffffffffffffffffffffffffffffffffffff021916908373ffffffffffffffffffffffffffffffffffffffff1602179055503460086000838152602001908152602001600020600101819055508260086000838152602001908152602001600020600301819055506001600960003373ffffffffffffffffffffffffffffffffffffffff1673ffffffffffffffffffffffffffffffffffffffff16815260200190815260200160002060006101000a81548160ff0219169083600181111561089e577f4e487b7100000000000000000000000000000000000000000000000000000000600052602160045260246000fd5b021790555080600a60003373ffffffffffffffffffffffffffffffffffffffff1673ffffffffffffffffffffffffffffffffffffffff168152602001908152602001600020819055506040518060400160405280600181526020017f620000000000000000000000000000000000000000000000000000000000000081525060059080519060200190610932929190610e79565b508091505092915050565b60035481565b600160009054906101000a900473ffffffffffffffffffffffffffffffffffffffff1673ffffffffffffffffffffffffffffffffffffffff163373ffffffffffffffffffffffffffffffffffffffff16146109d3576040517f08c379a00000000000000000000000000000000000000000000000000000000081526004016109ca90611457565b60405180910390fd5b8060038190555050565b7f000000000000000000000000000000000000000000000000000000000000000073ffffffffffffffffffffffffffffffffffffffff163373ffffffffffffffffffffffffffffffffffffffff1614610a6b576040517f08c379a0000000000000000000000000000000000000000000000000000000008152600401610a6290611477565b60405180910390fd5b610a758282610dba565b5050565b600a6020528060005260406000206000915090505481565b60045481565b60058054610aa49061164f565b80601f0160208091040260200160405190810160405280929190818152602001828054610ad09061164f565b8015610b1d5780601f10610af257610100808354040283529160200191610b1d565b820191906000526020600020905b815481529060010190602001808311610b0057829003601f168201915b505050505081565b60086020528060005260406000206000915090508060000160009054906101000a900473ffffffffffffffffffffffffffffffffffffffff16908060010154908060020160009054906101000a900460ff16908060030154905084565b600160009054906101000a900473ffffffffffffffffffffffffffffffffffffffff1673ffffffffffffffffffffffffffffffffffffffff163373ffffffffffffffffffffffffffffffffffffffff1614610c12576040517f08c379a0000000000000000000000000000000000000000000000000000000008152600401610c0990611457565b60405180910390fd5b3373ffffffffffffffffffffffffffffffffffffffff166108fc829081150290604051600060405180830381858888f19350505050158015610c58573d6000803e3d6000fd5b5050565b60007f000000000000000000000000000000000000000000000000000000000000000073ffffffffffffffffffffffffffffffffffffffff16634000aea07f0000000000000000000000000000000000000000000000000000000000000000858786604051602001610ccf92919061136c565b6040516020818303038152906040526040518463ffffffff1660e01b8152600401610cfc939291906112ce565b602060405180830381600087803b158015610d1657600080fd5b505af1158015610d2a573d6000803e3d6000fd5b505050506040513d601f19601f82011682018060405250810190610d4e9190610fae565b506000610d6f8584306000808a815260200190815260200160002054610e0a565b9050600160008087815260200190815260200160002054610d90919061152a565b60008087815260200190815260200160002081905550610db08582610e46565b9150509392505050565b6040518060400160405280600181526020017f630000000000000000000000000000000000000000000000000000000000000081525060059080519060200190610e05929190610e79565b505050565b600084848484604051602001610e239493929190611395565b6040516020818303038152906040528051906020012060001c9050949350505050565b60008282604051602001610e5b929190611287565b60405160208183030381529060405280519060200120905092915050565b828054610e859061164f565b90600052602060002090601f016020900481019282610ea75760008555610eee565b82601f10610ec057805160ff1916838001178555610eee565b82800160010185558215610eee579182015b82811115610eed578251825591602001919060010190610ed2565b5b509050610efb9190610eff565b5090565b5b80821115610f18576000816000905550600101610f00565b5090565b600081359050610f2b8161189d565b92915050565b600081519050610f40816118b4565b92915050565b600081359050610f55816118cb565b92915050565b600081359050610f6a816118e2565b92915050565b600081519050610f7f816118e2565b92915050565b600060208284031215610f9757600080fd5b6000610fa584828501610f1c565b91505092915050565b600060208284031215610fc057600080fd5b6000610fce84828501610f31565b91505092915050565b600060208284031215610fe957600080fd5b6000610ff784828501610f46565b91505092915050565b6000806040838503121561101357600080fd5b600061102185828601610f46565b925050602061103285828601610f5b565b9150509250929050565b60006020828403121561104e57600080fd5b600061105c84828501610f5b565b91505092915050565b60006020828403121561107757600080fd5b600061108584828501610f70565b91505092915050565b600080604083850312156110a157600080fd5b60006110af85828601610f5b565b92505060206110c085828601610f5b565b9150509250929050565b6110d381611580565b82525050565b6110e28161159e565b82525050565b6110f96110f48261159e565b611681565b82525050565b600061110a826114f2565b6111148185611508565b935061112481856020860161161c565b61112d81611722565b840191505092915050565b611141816115f8565b82525050565b6111508161160a565b82525050565b6000611161826114fd565b61116b8185611519565b935061117b81856020860161161c565b61118481611722565b840191505092915050565b600061119c602b83611519565b91506111a782611733565b604082019050919050565b60006111bf601983611519565b91506111ca82611782565b602082019050919050565b60006111e2601683611519565b91506111ed826117ab565b602082019050919050565b6000611205601f83611519565b9150611210826117d4565b602082019050919050565b6000611228602a83611519565b9150611233826117fd565b604082019050919050565b600061124b601983611519565b91506112568261184c565b602082019050919050565b61126a816115ee565b82525050565b61128161127c826115ee565b61168b565b82525050565b600061129382856110e8565b6020820191506112a38284611270565b6020820191508190509392505050565b60006020820190506112c860008301846110ca565b92915050565b60006060820190506112e360008301866110ca565b6112f06020830185611261565b818103604083015261130281846110ff565b9050949350505050565b600060808201905061132160008301876110ca565b61132e6020830186611261565b61133b6040830185611138565b6113486060830184611261565b95945050505050565b600060208201905061136660008301846110d9565b92915050565b600060408201905061138160008301856110d9565b61138e6020830184611261565b9392505050565b60006080820190506113aa60008301876110d9565b6113b76020830186611261565b6113c460408301856110ca565b6113d16060830184611261565b95945050505050565b60006020820190506113ef6000830184611147565b92915050565b6000602082019050818103600083015261140f8184611156565b905092915050565b600060208201905081810360008301526114308161118f565b9050919050565b60006020820190508181036000830152611450816111b2565b9050919050565b60006020820190508181036000830152611470816111d5565b9050919050565b60006020820190508181036000830152611490816111f8565b9050919050565b600060208201905081810360008301526114b08161121b565b9050919050565b600060208201905081810360008301526114d08161123e565b9050919050565b60006020820190506114ec6000830184611261565b92915050565b600081519050919050565b600081519050919050565b600082825260208201905092915050565b600082825260208201905092915050565b6000611535826115ee565b9150611540836115ee565b9250827fffffffffffffffffffffffffffffffffffffffffffffffffffffffffffffffff0382111561157557611574611695565b5b828201905092915050565b600061158b826115ce565b9050919050565b60008115159050919050565b6000819050919050565b60008190506115b682611875565b919050565b60008190506115c982611889565b919050565b600073ffffffffffffffffffffffffffffffffffffffff82169050919050565b6000819050919050565b6000611603826115a8565b9050919050565b6000611615826115bb565b9050919050565b60005b8381101561163a57808201518184015260208101905061161f565b83811115611649576000848401525b50505050565b6000600282049050600182168061166757607f821691505b6020821081141561167b5761167a6116f3565b5b50919050565b6000819050919050565b6000819050919050565b7f4e487b7100000000000000000000000000000000000000000000000000000000600052601160045260246000fd5b7f4e487b7100000000000000000000000000000000000000000000000000000000600052602160045260246000fd5b7f4e487b7100000000000000000000000000000000000000000000000000000000600052602260045260246000fd5b6000601f19601f8301169050919050565b7f4e6f7420656e6f756768204c494e4b202d2066696c6c20636f6e74726163742060008201527f7769746820666175636574000000000000000000000000000000000000000000602082015250565b7f426574206d7573742062652061626f7665206d696e696d756d00000000000000600082015250565b7f596f75206d7573742074686520746865206f776e657200000000000000000000600082015250565b7f4f6e6c7920565246436f6f7264696e61746f722063616e2066756c66696c6c00600082015250565b7f4e6f7420656e6f756768206d61746963206c6971756964697479206f6e20746860008201527f6520636f6e747261637400000000000000000000000000000000000000000000602082015250565b7f426574206d7573742062652062656c6f77206d6178696d756d00000000000000600082015250565b60038110611886576118856116c4565b5b50565b6002811061189a576118996116c4565b5b50565b6118a681611580565b81146118b157600080fd5b50565b6118bd81611592565b81146118c857600080fd5b50565b6118d48161159e565b81146118df57600080fd5b50565b6118eb816115ee565b81146118f657600080fd5b5056fea2646970667358221220f7e296ba564835b15e65493333cf76ca4e491f6f6b0b911d80f89228cebf0bd864736f6c63430008040033",
  "immutableReferences": {
    "487": [
      {
        "length": 32,
        "start": 1296
      },
      {
        "length": 32,
        "start": 1475
      },
      {
        "length": 32,
        "start": 3168
      }
    ],
    "489": [
      {
        "length": 32,
        "start": 2527
      },
      {
        "length": 32,
        "start": 3228
      }
    ]
  },
  "source": "// SPDX-License-Identifier: MIT\npragma solidity 0.8.4;\n\nimport \"./dependencies/VRFConsumerBase.sol\";\n\ncontract DiceGame is VRFConsumerBase {\n  address owner;\n  uint256 public bet_percentage_fee = 10;\n  uint256 public minimum_bet = 0;\n  uint256 public maximum_bet = 100 ether;\n  string public hola = \"a\";\n\n  enum Status { Finished, WaitingForOracle }\n  enum Result { Pending, PlayerWon, PlayerLost }\n  struct Game {\n    address player;\n    uint256 bet_amount;\n    Result result;\n    uint256 selection;\n  }\n\n  event GameResult(\n    address indexed player,\n    Result indexed result,\n    uint256 bet_amount,\n    uint256 transfered_to_player\n  );\n\n  // Chainlink internal setup\n  bytes32 internal keyHash = 0x6e75b569a01ef56d18cab6a8e71e6600d6ce853834d4a5748b720d06f878b3a4;\n  uint256 internal fee = 0.0001 * 10 ** 18;\n\n  // Random handlers\n  mapping(bytes32 => Game) public games;\n  mapping(address => Status) public player_status;\n  mapping(address => bytes32) public player_request_id;\n\n  constructor()\n  public\n  VRFConsumerBase(\n    0x8C7382F9D8f56b33781fE506E897a4F1e2d17255 /* VRF Coordinator */,\n    0x326C977E6efc84E512bB9C30f76E30c160eD06FB /* Link Mumbai Token Contract */)\n  {\n    owner = msg.sender;\n  }\n\n  function roll(uint256 userProvidedSeed, uint256 selection) public payable returns (bytes32 _requestId)\n  {\n    require(LINK.balanceOf(address(this)) > fee, \"Not enough LINK - fill contract with faucet\");\n    require(msg.value <= address(this).balance, \"Not enough matic liquidity on the contract\");\n    require(msg.value >= minimum_bet, \"Bet must be above minimum\");\n    require(msg.value <= maximum_bet, \"Bet must be below maximum\");\n\n    bytes32 requestId = requestRandomness(keyHash, fee, userProvidedSeed);\n\n    games[requestId].player = msg.sender;\n    games[requestId].bet_amount = msg.value;\n    games[requestId].selection = selection;\n    player_status[msg.sender] = Status.WaitingForOracle;\n    player_request_id[msg.sender] = requestId;\n\n    hola = \"b\";\n\n    return requestId;\n  }\n\n  function fulfillRandomness(bytes32 requestId, uint256 randomnes) internal override\n  {\n    hola = \"c\";\n    //address player = games[requestId].player;\n    /*\n    uint256 transfered_to_player = 0;\n    \n    if(randomnes%2 == games[requestId].selection)\n    {\n      games[requestId].result = Result.PlayerWon;\n    }else\n    {\n      games[requestId].result = Result.PlayerWon;\n    }\n\n    if(games[requestId].result == Result.PlayerWon)\n    {\n      transfered_to_player = games[requestId].bet_amount * bet_percentage_fee / 10000;\n      payable(player).transfer(\n        transfered_to_player\n      );\n    }\n    */\n    //player_status[player] = Status.Finished;\n\n    /*\n    emit GameResult(\n      player,\n      games[requestId].result,\n      games[requestId].bet_amount,\n      transfered_to_player\n    );\n    */\n  }\n\n  // Owner functions\n  modifier isOwner()\n  {\n    require(msg.sender == owner, \"You must the the owner\");\n    _;\n  }\n  \n  function retrieveFunds(uint256 amount) public isOwner()\n  {\n    payable(msg.sender).transfer(amount);\n  }\n\n  function setOwner(address new_owner) public isOwner()\n  {\n    owner = new_owner;\n  }\n\n  function setMinimumBet(uint256 amount) public isOwner()\n  {\n    minimum_bet = amount;\n  }\n\n  function setMaximumBet(uint256 amount) public isOwner()\n  {\n    maximum_bet = amount;\n  }\n\n  // Misc\n  fallback() external payable {}\n  receive() external payable {}\n  \n  function getLinkBalance() public view returns(uint256)\n  {\n    return LINK.balanceOf(address(this));\n  }\n}",
  "sourcePath": "/home/turupawn/Projects/Blockchain/Games/MaticDiceGame/contracts/TestgroundGame.sol",
  "compiler": {
    "name": "solc",
    "version": "0.8.4+commit.c7e474f2.Emscripten.clang"
  },
  "schemaVersion": "3.3.4",
  "updatedAt": "2021-06-07T03:53:36.634Z",
  "networkType": "ethereum",
  "devdoc": {
    "kind": "dev",
    "methods": {},
    "version": 1
  },
  "userdoc": {
    "kind": "user",
    "methods": {},
    "version": 1
  }
}