{
  "contractName": "TestgroundGame",
  "abi": [
    {
      "inputs": [],
      "stateMutability": "nonpayable",
      "type": "constructor"
    },
    {
      "inputs": [
        {
          "internalType": "bytes32",
          "name": "",
          "type": "bytes32"
        }
      ],
      "name": "games",
      "outputs": [
        {
          "internalType": "address",
          "name": "player",
          "type": "address"
        },
        {
          "internalType": "uint256",
          "name": "random_number",
          "type": "uint256"
        },
        {
          "internalType": "uint256",
          "name": "roll_amount",
          "type": "uint256"
        },
        {
          "internalType": "uint256",
          "name": "selection",
          "type": "uint256"
        }
      ],
      "stateMutability": "view",
      "type": "function"
    },
    {
      "inputs": [
        {
          "internalType": "address",
          "name": "",
          "type": "address"
        }
      ],
      "name": "player_request_id",
      "outputs": [
        {
          "internalType": "bytes32",
          "name": "",
          "type": "bytes32"
        }
      ],
      "stateMutability": "view",
      "type": "function"
    },
    {
      "inputs": [
        {
          "internalType": "address",
          "name": "",
          "type": "address"
        }
      ],
      "name": "player_status",
      "outputs": [
        {
          "internalType": "enum TestgroundGame.Status",
          "name": "",
          "type": "uint8"
        }
      ],
      "stateMutability": "view",
      "type": "function"
    },
    {
      "inputs": [
        {
          "internalType": "bytes32",
          "name": "requestId",
          "type": "bytes32"
        },
        {
          "internalType": "uint256",
          "name": "randomness",
          "type": "uint256"
        }
      ],
      "name": "rawFulfillRandomness",
      "outputs": [],
      "stateMutability": "nonpayable",
      "type": "function"
    },
    {
      "inputs": [
        {
          "internalType": "uint256",
          "name": "userProvidedSeed",
          "type": "uint256"
        },
        {
          "internalType": "uint256",
          "name": "selection",
          "type": "uint256"
        }
      ],
      "name": "roll",
      "outputs": [
        {
          "internalType": "bytes32",
          "name": "_requestId",
          "type": "bytes32"
        }
      ],
      "stateMutability": "payable",
      "type": "function"
    },
    {
      "inputs": [
        {
          "internalType": "uint256",
          "name": "amount",
          "type": "uint256"
        }
      ],
      "name": "retrieveFunds",
      "outputs": [],
      "stateMutability": "nonpayable",
      "type": "function"
    }
  ],
  "bytecode": "0x60c0604052600a6002557f6e75b569a01ef56d18cab6a8e71e6600d6ce853834d4a5748b720d06f878b3a460001b600355655af3107a400060045534801561004657600080fd5b50738c7382f9d8f56b33781fe506e897a4f1e2d1725573326c977e6efc84e512bb9c30f76e30c160ed06fb8173ffffffffffffffffffffffffffffffffffffffff1660a08173ffffffffffffffffffffffffffffffffffffffff1660601b815250508073ffffffffffffffffffffffffffffffffffffffff1660808173ffffffffffffffffffffffffffffffffffffffff1660601b81525050505033600160006101000a81548173ffffffffffffffffffffffffffffffffffffffff021916908373ffffffffffffffffffffffffffffffffffffffff16021790555060805160601c60a05160601c61109a61015b60003960008181610463015261067f0152600081816101bd0152610643015261109a6000f3fe6080604052600436106100555760003560e01c806338c6d3441461005a5780636ec9b8971461009757806394985ddd146100c7578063b6071cc6146100f0578063f579f8821461012d578063fc41491e1461016d575b600080fd5b34801561006657600080fd5b50610081600480360381019061007c9190610922565b610196565b60405161008e9190610da9565b60405180910390f35b6100b160048036038101906100ac9190610a2b565b6101b6565b6040516100be9190610d20565b60405180910390f35b3480156100d357600080fd5b506100ee60048036038101906100e9919061099d565b610461565b005b3480156100fc57600080fd5b5061011760048036038101906101129190610922565b6104fd565b6040516101249190610d20565b60405180910390f35b34801561013957600080fd5b50610154600480360381019061014f9190610974565b610515565b6040516101649493929190610cdb565b60405180910390f35b34801561017957600080fd5b50610194600480360381019061018f91906109d9565b610565565b005b60066020528060005260406000206000915054906101000a900460ff1681565b60006004547f000000000000000000000000000000000000000000000000000000000000000073ffffffffffffffffffffffffffffffffffffffff166370a08231306040518263ffffffff1660e01b81526004016102149190610c82565b60206040518083038186803b15801561022c57600080fd5b505afa158015610240573d6000803e3d6000fd5b505050506040513d601f19601f820116820180604052508101906102649190610a02565b116102a4576040517f08c379a000000000000000000000000000000000000000000000000000000000815260040161029b90610dc4565b60405180910390fd5b473411156102e7576040517f08c379a00000000000000000000000000000000000000000000000000000000081526004016102de90610e24565b60405180910390fd5b60006102f86003546004548661063f565b9050336005600083815260200190815260200160002060000160006101000a81548173ffffffffffffffffffffffffffffffffffffffff021916908373ffffffffffffffffffffffffffffffffffffffff1602179055503460056000838152602001908152602001600020600201819055508260056000838152602001908152602001600020600301819055506001600660003373ffffffffffffffffffffffffffffffffffffffff1673ffffffffffffffffffffffffffffffffffffffff16815260200190815260200160002060006101000a81548160ff0219169083600181111561040e577f4e487b7100000000000000000000000000000000000000000000000000000000600052602160045260246000fd5b021790555080600760003373ffffffffffffffffffffffffffffffffffffffff1673ffffffffffffffffffffffffffffffffffffffff168152602001908152602001600020819055508091505092915050565b7f000000000000000000000000000000000000000000000000000000000000000073ffffffffffffffffffffffffffffffffffffffff163373ffffffffffffffffffffffffffffffffffffffff16146104ef576040517f08c379a00000000000000000000000000000000000000000000000000000000081526004016104e690610e04565b60405180910390fd5b6104f9828261079d565b5050565b60076020528060005260406000206000915090505481565b60056020528060005260406000206000915090508060000160009054906101000a900473ffffffffffffffffffffffffffffffffffffffff16908060010154908060020154908060030154905084565b600160009054906101000a900473ffffffffffffffffffffffffffffffffffffffff1673ffffffffffffffffffffffffffffffffffffffff163373ffffffffffffffffffffffffffffffffffffffff16146105f5576040517f08c379a00000000000000000000000000000000000000000000000000000000081526004016105ec90610de4565b60405180910390fd5b3373ffffffffffffffffffffffffffffffffffffffff166108fc829081150290604051600060405180830381858888f1935050505015801561063b573d6000803e3d6000fd5b5050565b60007f000000000000000000000000000000000000000000000000000000000000000073ffffffffffffffffffffffffffffffffffffffff16634000aea07f00000000000000000000000000000000000000000000000000000000000000008587866040516020016106b2929190610d3b565b6040516020818303038152906040526040518463ffffffff1660e01b81526004016106df93929190610c9d565b602060405180830381600087803b1580156106f957600080fd5b505af115801561070d573d6000803e3d6000fd5b505050506040513d601f19601f82011682018060405250810190610731919061094b565b5060006107528584306000808a81526020019081526020016000205461084a565b90506001600080878152602001908152602001600020546107739190610e71565b600080878152602001908152602001600020819055506107938582610886565b9150509392505050565b8060056000848152602001908152602001600020600101819055506000600660003373ffffffffffffffffffffffffffffffffffffffff1673ffffffffffffffffffffffffffffffffffffffff16815260200190815260200160002060006101000a81548160ff02191690836001811115610841577f4e487b7100000000000000000000000000000000000000000000000000000000600052602160045260246000fd5b02179055505050565b6000848484846040516020016108639493929190610d64565b6040516020818303038152906040528051906020012060001c9050949350505050565b6000828260405160200161089b929190610c56565b60405160208183030381529060405280519060200120905092915050565b6000813590506108c881611008565b92915050565b6000815190506108dd8161101f565b92915050565b6000813590506108f281611036565b92915050565b6000813590506109078161104d565b92915050565b60008151905061091c8161104d565b92915050565b60006020828403121561093457600080fd5b6000610942848285016108b9565b91505092915050565b60006020828403121561095d57600080fd5b600061096b848285016108ce565b91505092915050565b60006020828403121561098657600080fd5b6000610994848285016108e3565b91505092915050565b600080604083850312156109b057600080fd5b60006109be858286016108e3565b92505060206109cf858286016108f8565b9150509250929050565b6000602082840312156109eb57600080fd5b60006109f9848285016108f8565b91505092915050565b600060208284031215610a1457600080fd5b6000610a228482850161090d565b91505092915050565b60008060408385031215610a3e57600080fd5b6000610a4c858286016108f8565b9250506020610a5d858286016108f8565b9150509250929050565b610a7081610ec7565b82525050565b610a7f81610ee5565b82525050565b610a96610a9182610ee5565b610f71565b82525050565b6000610aa782610e44565b610ab18185610e4f565b9350610ac1818560208601610f3e565b610aca81610fe3565b840191505092915050565b610ade81610f2c565b82525050565b6000610af1602b83610e60565b91507f4e6f7420656e6f756768204c494e4b202d2066696c6c20636f6e74726163742060008301527f77697468206661756365740000000000000000000000000000000000000000006020830152604082019050919050565b6000610b57601c83610e60565b91507f4f6e6c7920746865206f776e65722063616e2063616c6c2074686973000000006000830152602082019050919050565b6000610b97601f83610e60565b91507f4f6e6c7920565246436f6f7264696e61746f722063616e2066756c66696c6c006000830152602082019050919050565b6000610bd7602a83610e60565b91507f4e6f7420656e6f756768206d61746963206c6971756964697479206f6e20746860008301527f6520636f6e7472616374000000000000000000000000000000000000000000006020830152604082019050919050565b610c3981610f22565b82525050565b610c50610c4b82610f22565b610f7b565b82525050565b6000610c628285610a85565b602082019150610c728284610c3f565b6020820191508190509392505050565b6000602082019050610c976000830184610a67565b92915050565b6000606082019050610cb26000830186610a67565b610cbf6020830185610c30565b8181036040830152610cd18184610a9c565b9050949350505050565b6000608082019050610cf06000830187610a67565b610cfd6020830186610c30565b610d0a6040830185610c30565b610d176060830184610c30565b95945050505050565b6000602082019050610d356000830184610a76565b92915050565b6000604082019050610d506000830185610a76565b610d5d6020830184610c30565b9392505050565b6000608082019050610d796000830187610a76565b610d866020830186610c30565b610d936040830185610a67565b610da06060830184610c30565b95945050505050565b6000602082019050610dbe6000830184610ad5565b92915050565b60006020820190508181036000830152610ddd81610ae4565b9050919050565b60006020820190508181036000830152610dfd81610b4a565b9050919050565b60006020820190508181036000830152610e1d81610b8a565b9050919050565b60006020820190508181036000830152610e3d81610bca565b9050919050565b600081519050919050565b600082825260208201905092915050565b600082825260208201905092915050565b6000610e7c82610f22565b9150610e8783610f22565b9250827fffffffffffffffffffffffffffffffffffffffffffffffffffffffffffffffff03821115610ebc57610ebb610f85565b5b828201905092915050565b6000610ed282610f02565b9050919050565b60008115159050919050565b6000819050919050565b6000819050610efd82610ff4565b919050565b600073ffffffffffffffffffffffffffffffffffffffff82169050919050565b6000819050919050565b6000610f3782610eef565b9050919050565b60005b83811015610f5c578082015181840152602081019050610f41565b83811115610f6b576000848401525b50505050565b6000819050919050565b6000819050919050565b7f4e487b7100000000000000000000000000000000000000000000000000000000600052601160045260246000fd5b7f4e487b7100000000000000000000000000000000000000000000000000000000600052602160045260246000fd5b6000601f19601f8301169050919050565b6002811061100557611004610fb4565b5b50565b61101181610ec7565b811461101c57600080fd5b50565b61102881610ed9565b811461103357600080fd5b50565b61103f81610ee5565b811461104a57600080fd5b50565b61105681610f22565b811461106157600080fd5b5056fea26469706673582212208bf4ec95e1f1a8222c52edb77b27a00c033ce894341eb6d6bcf9e2e465c5020764736f6c63430008000033",
  "immutableReferences": {
    "1046": [
      {
        "length": 32,
        "start": 445
      },
      {
        "length": 32,
        "start": 1603
      }
    ],
    "1048": [
      {
        "length": 32,
        "start": 1123
      },
      {
        "length": 32,
        "start": 1663
      }
    ]
  },
  "source": "// SPDX-License-Identifier: MIT\npragma solidity 0.8.0;\n\nimport \"./MyERC20.sol\";\nimport \"./dependencies/VRFConsumerBase.sol\";\n\ncontract TestgroundGame is VRFConsumerBase {\n  address owner;\n  uint256 roll_percentage_fee = 10;\n  enum Status { Finished, WaitingForOracle }\n  struct Game {\n    address player;\n    uint256 random_number;\n    uint256 roll_amount;\n    uint256 selection;\n  }\n\n  // Chainlink internal setup\n  bytes32 internal keyHash = 0x6e75b569a01ef56d18cab6a8e71e6600d6ce853834d4a5748b720d06f878b3a4;\n  uint256 internal fee = 0.0001 * 10 ** 18;\n\n  // Random handlers\n  mapping(bytes32 => Game) public games;\n  mapping(address => Status) public player_status;\n  mapping(address => bytes32) public player_request_id;\n\n  constructor()\n  public\n  VRFConsumerBase(\n    0x8C7382F9D8f56b33781fE506E897a4F1e2d17255 /* VRF Coordinator */,\n    0x326C977E6efc84E512bB9C30f76E30c160eD06FB /* Link Mumbai Token Contract */)\n  {\n    owner = msg.sender;\n  }\n\n  function roll(uint256 userProvidedSeed, uint256 selection) public payable returns (bytes32 _requestId) {\n    require(LINK.balanceOf(address(this)) > fee, \"Not enough LINK - fill contract with faucet\");\n    require(msg.value <= address(this).balance, \"Not enough matic liquidity on the contract\");\n\n    bytes32 requestId = requestRandomness(keyHash, fee, userProvidedSeed);\n\n    games[requestId].player = msg.sender;\n    games[requestId].roll_amount = msg.value;\n    games[requestId].selection = selection;\n    player_status[msg.sender] = Status.WaitingForOracle;\n    player_request_id[msg.sender] = requestId;\n\n    return requestId;\n  }\n\n  function fulfillRandomness(bytes32 requestId, uint256 randomnes) internal override {\n    games[requestId].random_number = randomnes;\n    player_status[msg.sender] = Status.Finished;\n  }\n\n  function retrieveFunds(uint256 amount) public\n  {\n    require(msg.sender == owner, \"Only the owner can call this\");\n    payable(msg.sender).transfer(amount);\n  }\n}",
  "sourcePath": "/home/turupawn/Projects/Blockchain/Games/MaticDiceGame/contracts/TestgroundGame.sol",
  "compiler": {
    "name": "solc",
    "version": "0.8.0+commit.c7dfd78e.Emscripten.clang"
  },
  "schemaVersion": "3.3.4",
  "updatedAt": "2021-06-05T04:10:28.061Z",
  "devdoc": {
    "kind": "dev",
    "methods": {},
    "version": 1
  },
  "userdoc": {
    "kind": "user",
    "methods": {},
    "version": 1
  }
}